:020000022000DC
:1060000000000120756302005D6302005F6302000F
:106010006163020063630200656302000000000028
:1060200000000000000000000000000067630200A4
:1060300069630200000000006B6302006D630200F0
:10604000698702006F630200B98B02006F63020070
:10605000B19902006F630200698A02006F63020057
:106060006F6302006F6302006F6302006F630200E0
:106070006F6302006F6302006F6302006F630200D0
:106080006F630200697802006F6302006F630200B1
:106090006F6302006F63020099BA02006F6302002F
:1060A0006F6302006F6302006F6302006F630200A0
:1060B0006F6302006F630200000000000000000038
:1060C0006F6302006F6302006F6302006F63020080
:1060D000119602006F6302006F630200000000006F
:1060E00000000000000000000000000000000000B0
:1060F00000000000000000000000000000000000A0
:10610000000000000000000000000000000000008F
:10611000000000000000000000000000000000007F
:10612000000000000000000000000000000000006F
:10613000000000000000000000000000000000005F
:10614000000000000000000000000000000000004F
:10615000000000000000000000000000000000003F
:10616000000000000000000000000000000000002F
:10617000000000000000000000000000000000001F
:10618000000000000000000000000000000000000F
:1061900000000000000000000000000000000000FF
:1061A00000000000000000000000000000000000EF
:1061B00000000000000000000000000000000000DF
:1061C00000000000000000000000000000000000CF
:1061D00000000000000000000000000000000000BF
:1061E00000000000000000000000000000000000AF
:1061F000000000000000000000000000000000009F
:10620000354936480A1A02D0072291438D4634494F
:1062100034480A1A06D00722914381F309880222E2
:1062200082F3148830483149314A00F044F831484B
:106230003149324A00F03FF831483249324A00F0E1
:106240003AF832483249334A00F035F83248334997
:10625000334A00F030F833483349344A00F02BF821
:1062600033483449344A00F026F83448344900228F
:1062700000F02CF833483449002200F027F8334866
:106280003349091A082902DB002202604160314AC1
:1062900090471F481F49884205D00268043003B464
:1062A000904703BCF7E700208646EC46002000211B
:1062B000294A9047FEE7884207D0521A05D0037852
:1062C00001300B700131013AF9D17047884202D098
:1062D00002700130FAE770470000012000E0002062
:1062E000000001200000012078D70200F0220020E9
:1062F0006C230020D0630200D063020024C6020099
:1063000078D70200F0220020F022002030C70200DF
:1063100030C7020030C7020030C7020030C7020099
:1063200030C7020030C7020030C7020077D7020032
:10633000F4D702006C2300206C2300206C23002083
:1063400094300020943000209430002094300020BD
:10635000945000209D63020069A60200FEE7FEE75C
:10636000FEE7FEE7FEE7FEE7FEE7FEE7FEE7FEE705
:1063700000F002B8FFF7FCBF0F484FF00701884359
:1063800085460E4880470E48016841F4700101605F
:10639000BFF34F8FBFF36F8FFFF732BF09480A4932
:1063A0000A4A884207D0521A05D0037801300B7090
:1063B0000131013AF9D1704700000120D18102007A
:1063C00088ED00E030C70200F0220020F02200201B
:1063D0007047000007B5044B0093044A402300F0C7
:1063E00032F803B05DF804FBF16302006D23002076
:1063F0002DE9F84388461446B2B10F4B0F4E0325E2
:10640000002743F00109224608EB0701002004F0B1
:10641000E1FA0744241A48B933782BB14FF47A4093
:10642000C847013D02D13570BDE8F88301233370C0
:10643000002CE8D1F8E700BF30C702006C23002031
:10644000704704F01BBBF0B595B01D4616460846D4
:106450000C4601F0B3FD1A9B0D93CDE908650025AC
:106460002B46082205A920460A958DF82C500C953C
:1064700001F0C1FD079B0293069B03939DF8143026
:106480008DF8115003F00302012A1DD1BDF814202C
:10649000059DC3F3C203C2F383168DF81030B2001A
:1064A00008230EA9204601F0A6FDC5F3952508ABEB
:1064B0000093324602AB0EA9284600F0C5FB2046E9
:1064C00001F080FD15B0F0BD022AF8D1BDF81650DC
:1064D000C3F3C203C5F389158DF810300827082DC2
:1064E0002E4628BF08263B4632460EA9204601F01C
:1064F00082FDAD1B08AB02AA31460EA8374400F05E
:1065000007FC002DEBD1DAE7014B01221A7070472E
:10651000EE2300207047000070B5124D06460FCDE7
:1065200088B06C460FC495E80F00002E84E80F0079
:106530004FF0FF334FF00602CDE90023CDE90233DF
:10654000094A0A484FF0EB7308BF002269460693D8
:1065500002F090F808B100F0CFFD054B1E7008B0B6
:1065600070BD00BF44C7020009650200F022002090
:10657000AD23002007B5044B0093044A4023FFF7E6
:1065800062FF03B05DF804FB91650200AE230020BA
:1065900038B50D4B0D4D002018700D4804782D5D59
:1065A000D2B21C4665B1043002F074FF08B100F0AD
:1065B000A3FD084B1A7812B12378002BFBD038BD0D
:1065C0000C3002F029FDF1E7EE230020A82A00207C
:1065D000F0220020AD23002008B50848084A0378BF
:1065E000D35C3BB1043002F0C5FEBDE8084000209A
:1065F000FFF792BF0C3002F0A5FCF6E7F022002076
:10660000A82A00200120FFF787BF000038B50A4DF7
:10661000FFF717FF0421284600F080FA074B0124FA
:106620005C71FFF7EFFF042105F1100000F076FA2E
:10663000034B5C7138BD00BF10C70200042300206B
:106640000C230020037813F0040216D003F0030398
:10665000012B03D0022B09D0012070470A68008863
:106660000232C0F3831002440A60F5E70B684288E7
:10667000023303EB92130B60EEE710467047000005
:106680002DE9F04F87B000230446861C0DF107006A
:106690000F4615468DF8073000F078FF404A5168E4
:1066A0003960936803F580735B1A924602F21C47C7
:1066B00002F5836902F21448B3421AD30020002D78
:1066C00069D004F00F039B0143F0050363F30F004F
:1066D000DAF80430DAB203321E444AF822009DF898
:1066E0000700CAF8046000F075FF012007B0BDE89C
:1066F000F08F0121384601F094F9484601F0A9F9DC
:10670000404601F0A6F9DAF808000290C0B2033062
:106710000AEB800002A9FFF795FF029B30BBDAB2BB
:106720000AEB8202D16803919A1C0133DBB20AEBB7
:1067300083030292D3F80CB001F00303012B22D0A3
:10674000022B15D08346404601F086F910B1029B1A
:10675000CAF808305946384601F063F9DAF80830CB
:10676000DAF8042003F580739B1AA5E7D8B2CEE7C8
:10677000BDF80E30C3F3891303334FEA1B4B02EB12
:1067800093030293DFE7BDF80C30C3F383134FEAA2
:106790001B4B1344F5E7A40544F0060098E700BF3F
:1067A000C0240020064B074810B500221A7001F0E3
:1067B000BEFB044610B9044801F066FC204610BD3B
:1067C000C024002074C60200A8C7020030B50A4CDD
:1067D00071B10A4A0A49121BD20800239A4201D118
:1067E000002030BD31F82350854202D00133F5E757
:1067F000034654F83300F4E788C6020010C70200CD
:10680000F0220020094B013903EBC000032909D80D
:10681000DFE801F00A02040604207047007970479F
:1068200040797047002070470220704788C60200F8
:10683000034BD3E90130C31A58425841704700BF97
:10684000C02400202DE9F04186B0FFF7F1FF054696
:10685000002840F0E680744CC4F81804BFF34F8F52
:10686000A3680293DBB2033304EB830002A9FFF7B2
:10687000E9FE029B18B1D4F81824002A55D0DAB2E8
:10688000991C013304EB8202DBB204EB8303D26870
:10689000DB68049302F00303022B039202914FD1B1
:1068A000BDF80E306148C3F38917502F3E4628BF0C
:1068B000502666F38F1306F10801ADF80E3001F093
:1068C0004EFB0546002800F0978001F077FB00237F
:1068D00003A90822284601F084FB0299CB43DBB2CE
:1068E0000133C9B20331B6EB830F4FEA830804EBDF
:1068F000810122D908234246A6EB0806284601F06A
:1069000070FBF6B24A4908F108033246284601F006
:1069100068FB029B033703EB97070297D4F8183400
:10692000002B41D1D4F8106451E062689A4299D8A2
:10693000A260284606B0BDE8F08108233246E5E7AC
:10694000012B59D1BDF80C303848C3F38311062907
:1069500028BF062161F3891302318900ADF80C309C
:1069600001F0FDFA0546002846D001F027FB002380
:10697000082203A9284601F034FB0026BDF80C20AC
:10698000C2F38312B300964203F10803C6D2029900
:106990004A1CC9B20331029204EB81010422284649
:1069A00001F01FFB0136E9E7284601F00BFBFFF77A
:1069B0003FFF80F00100C5B2BBE7F3685B7923B10C
:1069C000336829461B6830469847F3681E68002ED6
:1069D000F3D1284601F0F6FA0DF107008DF80760B3
:1069E00000F0D4FDD4F818340BB9029BA3609DF8D5
:1069F000070000F0EFFDDAE7D4F8104454B90D4B6E
:106A00000D480E49C01AC008000440F0020000F012
:106A10005DF8CCE7236820469B689847E3681C68CC
:106A2000ECE7002585E700BFC024002074C6020003
:106A3000CC24002088C60200C0C6020091C7020014
:106A40002DE9F34704460E46924601A90122184655
:106A50009946FFF715FE1B4F10B3019D4FF000083C
:106A6000AA1CC84508EB020123D11748002100F0F9
:106A7000A9FF80F31000000440EA1440E4006B1CFE
:106A800004F03804DBB2EDB244F0010407EB8303F9
:106A9000033544EA881444EA8624D86047F8254040
:106AA0003B781BB1FFF7CEFE0028FBD102B0BDE85A
:106AB000F087C9B207EB81015AF82830CB6008F1A2
:106AC0000108CEE7C0240020DC28002000231A465D
:106AD000FFF7B6BF07B50123019201AAFFF7B0FF88
:106AE00003B05DF804FB07B5CDE9002302236A4635
:106AF000FFF7A6FF03B05DF804FB7FB5CDE90123E6
:106B0000089B0393099B04930A9B059301AA052301
:106B1000FFF796FF07B05DF804FB000030B50F49A2
:106B2000D1F8102403460020144634B9DC682071E3
:106B30004AB9C1F81034226030BDE4682579854235
:106B400006D02468F1E7D268116821601360F3E78A
:106B500001300A28E8D14FF0FF30EDE7C0240020D3
:106B6000084A38B50123D2F8104413701D4604B901
:106B700038BDE3685D71236820465B689847E36829
:106B80001C68F4E7C024002007B503460846197ABC
:106B9000052911D05B7A2BB1094A0A49019000F00E
:106BA000BEFF01980849019000F0B9FF019803B0B9
:106BB0005DF804EB00F0A8BF002AF8D0F2E700BFB0
:106BC000B4C70200B9C70200D9C7020030B5C388F4
:106BD00085B004460D4633B1144A00921449154A53
:106BE000284600F09CFF217A05291DD0637A4BB11D
:106BF000A088FFF707FE104B104953F820202846C5
:106C000000F08DFF227A0E4BA08853F822200392C9
:106C10000021FFF7DBFD039A0A490346284605B029
:106C2000BDE8304000F07BBF05B030BDB4C7020006
:106C3000C4C70200BCC7020048C80200B9C70200AE
:106C40006CC80200DCC702002DE9F04385B01F4686
:106C50000C9D002395F80C902B7306460C4690462D
:106C600029463846FFF7B2FFB8F1060F09D8DFE82A
:106C700008F00412181F283340003146284600F05F
:106C80004EFF002229463846FFF77EFF85F80C901C
:106C900005B0BDE8F08322683146284600F03FFF8A
:106CA000EFE7D4E900233146284600F038FFE8E753
:106CB000A36800933146D4E90023284600F02FFF53
:106CC000DFE7E3680193A36800933146D4E900232A
:106CD000284600F024FFD4E723690293E368019378
:106CE000A36800933146D4E90023284600F017FF3B
:106CF000C7E76369039323690293E3680193A36879
:106D000000933146D4E90023284600F008FFB8E795
:106D100008292DE9F74F80460E4617461C463CD8F9
:106D2000002593F80C901D7319461046FFF74EFF8F
:106D3000DFF888A0DFF888B0AE4231D918F8052016
:106D40005946204600F0EBFE0135082DF4D11949D3
:106D5000194DDFF870A0204600F0E1FE4FF0000B67
:106D60005E4522D918F80B207E2A05D810460192DC
:106D700005F06CF8019A00B92E225146204600F029
:106D8000CEFE0BF1010BBBF1080FE9D10122214628
:106D90003846FFF7F9FE84F80C9003B0BDE8F08F99
:106DA0005146204600F0BBFECEE72946204600F0C3
:106DB000B6FEE6E7F0C70200EEC70200ECC702002D
:106DC000E6C70200F2C70200C30710B507D4F023DC
:106DD000054A4008145C23401943115410BD0901B1
:106DE000C9B20F23F4E700BFA829002030B5094B32
:106DF0001C78094B196800239C4202DC00221046D3
:106E000030BD11F83350854201EBC302F7D0013396
:106E1000F2E700BF78290020B829002013B5044606
:106E20000191FFF7E3FF38B143682BB10199204688
:106E300002B0BDE81040184702B010BD034B044833
:106E400019680022490800F0B0BA00BF7C29002070
:106E50008029002010B5C0B2FFF7C8FF04460078B3
:106E600001F0F8FD63785A1E53425341834208D122
:106E7000044BD3E90023134303D1BDE81040FFF7CF
:106E8000DDBF10BDA029002037B54308354AD35CCB
:106E9000C2074CBF1B0903F00F0304460D46042B29
:106EA00035D8DFE803F003252C383C0079B3012105
:106EB000FFF78AFF00230DF107008DF8073000F07F
:106EC00065FB0120A4F12003C4F12001264A20FA29
:106ED00001F100FA03F30B43A040D2E90041204343
:106EE0000B43C2E900039DF8070000F073FB0EE0BE
:106EF000002918BF02212046FFF766FF07E041B1D5
:106F00000321FFF761FF01212046FFF787FF03B050
:106F100030BD0121EFE70029F9D10421EBE709B1E8
:106F20000321E8E7FFF750FF29462046FFF776FFE9
:106F30000DF107008DF8075000F028FB0120A4F1A7
:106F40002003C4F12001084A20FA01F100FA03F3FA
:106F50000B43A040D2E9004124EA000021EA0303E8
:106F6000BFE700BFA8290020A02900202DE9F0419B
:106F7000124E134F00243378A34208DC114BD3E99F
:106F80000023134318D0BDE8F041FFF757BF3D6819
:106F900005EBC40815F8340001F05CFD98F80130E9
:106FA0005A1E53425341181A4142414115F83400C8
:106FB000FFF76AFF0134DEE7BDE8F08178290020A1
:106FC000B8290020A0290020092AF7B505460C465B
:106FD00016463CD901F05CFCD8B11E4B1E481D6022
:106FE0001E4B1F4F1C701F4B002110221E6004F00F
:106FF0007AFF1D4B00200021C3E90001013CE4B2EF
:107000000326FF2C0BD1194A1948002100F0C2F9C0
:1070100003E001F0FFFB0028DFD003B0F0BD9DF8D6
:10702000063015F834008DF8046005EBC40223F037
:1070300007038DF8063001A993788DF805303A469C
:1070400001F030FC013CE4B20028DAD0E5E707208B
:10705000E3E700BFB8290020A829002078290020F4
:10706000556E02007C290020A02900206D6F0200CF
:107070008CC8020070B5084D084E00242B789C4245
:1070800001D3002070BD3368012113F8340001F0F2
:107090007BFC0134F2E700BF78290020B8290020EA
:1070A00073B5114D114E00242B789C4214D300234C
:1070B0000DF107008DF8073000F068FA0C4B002145
:1070C0000020C3E900019DF8070000F083FA094899
:1070D00000F083F902B070BD336813F8340001F09A
:1070E00097FC0134E0E700BF78290020B829002090
:1070F000A0290020802900201FB50021039001AAAB
:1071000044F20100CDE9011100F030F805B05DF85E
:1071100004FB000082B001238DF807309DF8073092
:10712000114B1860596044F2010188429A6012D0F4
:1071300044F20201884206D1DA60DA6812689A6184
:10714000DA685268DA6172B69DF80730002BFBD11D
:1071500062B602B070471A611A6992685A611A6978
:1071600012689A611A69ECE7BC290020F0B506465E
:1071700087B00F46154672B6FFF7F2FCFFF762FBC9
:107180000028FBD1234B244CE41AE40844F2010309
:1071900024049E4244F001042AD00BD8012E14D0BE
:1071A00041F201039E4221D01C493A462046FFF796
:1071B00091FC0EE044F202039E42F5D1D5E9003283
:1071C00017492046FFF78FFC03E016492046FFF7DA
:1071D0007DFC154B1B68DB0700D500BE2A463946EF
:1071E000304607B0BDE8F040FFF794BF0F49EDE728
:1071F000AA680592104600F0ABFF2968029701913A
:107200006968009103460A49059A2046FFF775FC14
:107210000849DBE788C60200C0C6020023C9020095
:10722000CFC8020090C80200F0ED00E0ADC8020037
:10723000E9C802000FC90200D0E90223D1E9020126
:10724000994208BF90422CBF0120002070470000E7
:1072500008B50B4800F0F1FA0A4B0B49D3E90023BB
:107260001218D1E9000143F100038B4208BF8242AA
:1072700003D212F1807243F100031046194608BD93
:1072800014230020E0290020582A002037B50546A5
:107290000C460A4801A900F004FB60B10570446087
:1072A00001A9064800F027FB18B1054800F0CAFA0A
:1072B000002003B030BD0420FBE700BF442A0020BB
:1072C0001423002038B5184B1B78044613B9002549
:1072D000284638BD0028FAD0037F03F0FF05002BB5
:1072E000F5D0FFF7B5FFD4E90223994208BF9042D9
:1072F00014D3236903B92377D4E90530984721696A
:107300000029E4D0237F03F0FF05002BDFD0D4E970
:107310000223521843F10003C4E902230348214623
:1073200000F0D1FED4E700BFE82900204CC90200DC
:1073300013B5114B114918680190082310485822C1
:1073400000F09CFA044698B90E4A0F4801A900F0D3
:1073500065F9044660B90C48012100F051FA012397
:107360000A4A0948194600F0B3F9094B01221A707C
:10737000204602B010BD00BF46C90200EC29002023
:10738000442A0020F573020014230020FFFF7F0031
:10739000E82900203AB103685A614A1E514251411E
:1073A0001961002070470720704738B5037F0446F5
:1073B0000D4683B98261FFF74BFF2369401941F104
:1073C0000001C4E9020103B1256121460020BDE8A6
:1073D0003840FFF75BBF002038BD0023014603772C
:1073E0000120FFF753BF0000014800F026BA00BF9C
:1073F000142300202DE9F04F85B0804600F008FAF4
:1074000040B15A4AD2E9003113F1807341F10001D1
:10741000C2E900310021404600F009FA38B1544E6B
:10742000336823B13068FFF74DFF0023336001213B
:10743000404600F0FCF920B1FFF70AFF4D4BC3E9CD
:1074400000014D484A4F4D4EDFF8389103A900F036
:1074500062FA002845D1DFF82491454EDFF828A1D3
:10746000484600F046FE3368002875D07BB133688B
:10747000D0E90201D3E90223994208BF90422DD2FC
:1074800033681B7F1BB13168484600F01CFE48463C
:1074900000F029FED0E902B307460193FFF7D8FEBA
:1074A000019BBBEB000463EB0105012C75F10003AC
:1074B00045DBB4F5350F40D3FFF796FF304A024461
:1074C0004FF496030021504600F022F900283ED1E7
:1074D000336813B9404600F0F3F8376005B0BDE8F3
:1074E000F08F0378012B1DD0022B09D14FF0000A39
:1074F000304600F0F8FD002834D080F81CA0F7E7F3
:107500003BB941680B7F23B901230B77304600F06C
:10751000DAFD03A9184800F029FA03A9164800F07B
:10752000FAF996E741683B68994202D100233B6033
:10753000EFE7304600F0E0FDEBE7BA68C0E7002176
:10754000504600F06AF93846FFF7BCFE01E00D280E
:10755000F9D00023336083E7002BBFD1404600F011
:10756000B3F8BBE7012389F80030D2E7E029002017
:10757000602A0020582A0020442A00204CC902001A
:10758000FFFFB400E82900201423002070B5EFF3BA
:10759000108672B60C4A946801239CB993600B4B19
:1075A0000B4DD3F8801029401160C3F88050D3F8F8
:1075B000841051604FF0FF32C3F88420047006B984
:1075C00062B670BD0370FAE7642A002000E100E0B3
:1075D000FC06FFBD084B9A6810B55AB150B9EFF3DD
:1075E000108172B6054A1C6814605C68546098602B
:1075F00001B962B610BD00BF642A002000E100E0BE
:10760000435882B03BB10023435043580193019B40
:10761000012002B070471846FBE70000F8B5204B88
:107620004479204D43F824201F4A204B05EBC40425
:107630009B1A2279DB081B0432B143F002001C497B
:10764000FFF744FA0820F8BD02680C88C2F8084524
:1076500090F904608A7804795201002ED2B219DBC5
:1076600014498F1987F800230122760904F01F04BA
:1076700002FA04F441F82640427905EBC2010124E4
:1076800045F832000C7143F003000B49FFF71EFA76
:107690000020D8E7094904F00F040A55ECE700BFC1
:1076A000782A0020702A002088C60200D0C6020076
:1076B00058C9020000E100E07AC9020014ED00E0C0
:1076C000036801221A607047036801225A607047FC
:1076D00073B501F15005AD000068ADB24FF48034D0
:1076E0008C400026C0F80843C0F84843465101F5D5
:1076F000A8714559019522F07F42019D40F8212053
:10770000C0F844430BB1C0F8044302B070BD0000A0
:107710002DE9F74F0D4622F07F4402684FF4803781
:1077200005F150068F408046B60002EB8500C2F896
:107730004873B6B2C2F80873D2F8041599464FF0F0
:10774000000BD0F84035C0F8401542F806B05B1A7F
:107750009259009223F07F43012B009A4FEA850A49
:107760000CD1264B4FF4806043F001039847D8F8C2
:10777000003043F806B09B590193019BD8F80010E4
:10778000D1F80465C1F84473A31B23F07F43012B98
:107790001CD11A4B05F5A875013443F0010341F8DB
:1077A00025404FF480609847D8F80030D3F804356E
:1077B0009E4209D1D8F800300020C3F84473C3F8C2
:1077C000047303B0BDE8F08F0D20FAE78A44C9F1D5
:1077D000FF13CAF84045D1F80405221A013A22F0F5
:1077E0007F4203F57F439342EED3002AE2D1013476
:1077F000CAF84045D1F804359842DAE790C902004A
:1078000003680222C3F8442309B1C3F80423704774
:1078100000684FF48271FFF7F3BE4FF4803303FA30
:1078200001F10368C3F84813C3F8081370475031D7
:107830008900006889B2FFF7E3BE0368D3F8040546
:107840007047000090F90430002B09DB5A09012130
:1078500003F01F0301FA03F34032024941F82230DA
:10786000704700BF00E100E0024B034A1B6810684C
:10787000184700BF782A0020702A002010B561B197
:10788000B2FBF3F403FB1424A4B244B9C0E900141E
:1078900084608281C381204610BD0E20FCE7092050
:1078A000FAE737B550E8013F9DB2C4892544848981
:1078B000A54228BF2D1B0489A54202BFBFF32F8F0D
:1078C000002207E0C5EA030540E80154002CE9D195
:1078D0004FF001028DF803200193019B9DF80320D6
:1078E0000B6002F0FF0322B10B880068184403B05C
:1078F00030BD1846FBE70A884B889A4209D150E808
:10790000012FC2EA024240E80123002BF7D10120F7
:1079100070470020704737B550E8023F1FFAA3F5C3
:10792000C488A54202BFBFF32F8F00220DE0C48997
:1079300025448489A54228BF2D1BC3EA054540E89C
:107940000254002CE8D14FF001028DF8032001937E
:10795000019B9DF803200B6002F0FF0322B14B88CE
:107960000068184403B030BD1846FBE70A884B880E
:107970009A4209D150E8022FC2EA224240E802238B
:10798000002BF7D1012070470020704701F01F0243
:107990004B090121914000EB830000F01EB801F07B
:1079A0001F0301229A404B0900EB8300D14300F0F2
:1079B0002CB84B0901F01F0150F82300C84000F01B
:1079C0000100704710B5034653E8000F0A4643E82C
:1079D000002494F0000FF7D110BD10B5034653E812
:1079E000002F42EA010043E8000494F0000FF6D1B2
:1079F00010BD10B5034653E8000F00EA010243E84A
:107A0000002494F0000FF6D110BD10B5034653E8E2
:107A1000002F02EA010043E8000494F0000FF6D1C1
:107A200010BD10B5034653E8002F02EB010043E8F8
:107A3000000494F0000FF6D110BD10B5034653E8D2
:107A4000002FA2EB010043E8000494F0000FF6D1F0
:107A500010BD0121FFF7C1BF0021FFF7CABF10B55C
:107A600090B1D0E9012301689B1ADBB20A60013BA7
:107A7000DBB2FF2B026802D10020107110BD11682B
:107A80004C1C14600B70F2E70E20F7E737B5054683
:107A900000240DF107008DF80740FFF777FD2A68F5
:107AA0006B68116899420ED9481E106011F8014C9C
:107AB000EB68298A01FB0434AB6811791B1ADBB22D
:107AC000994238BF13719DF80700FFF783FD2046E8
:107AD00003B030BD37B5054600230DF107000C4655
:107AE0008DF80730FFF752FD2A681368591C1160A2
:107AF000E968641A298AB4FBF1F41C709DF8070048
:107B0000FFF768FD03B030BD826810B504462AB1A6
:107B100043690168006998470023A36010BD0EB453
:107B200003B5039921B104AB01AA019300F06EF8EB
:107B300002B05DF804EB03B07047826830B40468AB
:107B4000551C8560A154D0E901329A4202D330BC61
:107B5000FFF7DABF30BC70472DE9F84F9846DDE9F2
:107B60000A43154682460F460A464FF00109AA42CB
:107B70000FD2C14538BFC14613F0010B01D16CB91A
:107B800000240126B8F1010F1BD908F1FF386E431C
:107B9000F8E709F10109B2FBF5F2E8E79B070ED51A
:107BA000B8F1000F0CBF30262026A145E9D2013CD8
:107BB00031465046FFF7C1FF002CF6D1E0E7202602
:107BC000F3E7B7FBF6F39D42E1D9DFF83C80B7FB62
:107BD000F6F3504618F8031006FB1377FFF7ADFFD6
:107BE0003346AB42B6FBF5F6F1D2BBF1000F02D043
:107BF0000CB1A14501D3BDE8F88F20215046013CCE
:107C0000FFF79BFFF4E700BF96C902002DE9F74F8D
:107C1000054617468846002900F0428118F8011BE6
:107C200049B92B7B002B00F03B81284603B0BDE80F
:107C3000F04FFFF769BF252940F0B780002698F87C
:107C400000302D2B424608F1010823D0302B24D0E0
:107C50002B2B25D000242A2B02F1010123D13B68D4
:107C60001A1D1B683A601C440A4613782E2B26D135
:107C700001324FF0000A104610F8011BA1F1300C40
:107C8000BCF1090F1DD80A2303FB0A13A3F1300A24
:107C90000246F0E746F00106D1E746F00206CEE7DD
:107CA00046F00406CBE711F8013CA3F130000928A7
:107CB000DBD80A2202FB0434303C0A46CBE74FF003
:107CC000000A12F8011B01F0FB0068289046F8D06A
:107CD000782909D86F290CD8632962D022D82529A0
:107CE00063D0582900F0888098F80030002B95D197
:107CF00097E770390829F7D801A353F821F000BF9E
:107D00007B7E0200E97C0200E97C0200097E020021
:107D1000E97C0200E77D0200E97C0200E97C0200C8
:107D2000F97D0200642901D06929DDD13A68D2F8D1
:107D30000090111D89EAE9723960A2EBE9724FF0F7
:107D4000010B092A35DCD34538BFD3462CB1B9F134
:107D5000000F01DB720700D5013CB30702D5BAF171
:107D6000000F03D0F00701D44CBB0024B9F1000F81
:107D70002DDAC9F100092D212846FFF7DEFE06F0B5
:107D80000302022A04D1BAF1000F01D11CBB002466
:107D9000CDE9004653460A2249462846FFF7DCFE55
:107DA000A2E73B681A1D19783A602846FFF7C5FE1E
:107DB0009AE70A230BF1010BB2FBF3F2C1E7A345EB
:107DC000D4D220212846013CFFF7B7FECCE771074B
:107DD000D5D52B21D0E7A345DAD230212846013C66
:107DE000FFF7ABFED2E73968CDE900460A1D3A60DD
:107DF00053460A220968D0E739680A1D3A60CDE97E
:107E0000004653461022F5E73B681A1D3A6016F00B
:107E10000106D3F8009028D1B9F1000F03D04846ED
:107E200004F0B6F80646B44200D904BB09F1FF39A4
:107E300019F8011F00293FF457AF2846FFF77DFED0
:107E4000F6E728460136FFF778FE19F806100029F4
:107E5000F7D1A642BFF448AF002C3FF445AF202134
:107E60002846013CFFF769FEF3E70026EDE72021F5
:107E70002846013CFFF761FED5E73B681A1D3A60D2
:107E8000302128461C68FFF758FE78212846FFF766
:107E900054FE00220823CDE90032214610227CE75F
:107EA00003B0BDE8F08F00BF2DE9F84FB0F806A091
:107EB0004579D2F800B09DF828900AFB05F5043DFD
:107EC00088460BEB0301A94203F1040488BFA5EB2C
:107ED000030BB4FBFAF607460AFB1644C2F800B0DF
:107EE0004EB9AAEB04055D4528BF5D46BBF1000F06
:107EF00004D1BDE8F88F3F68013EF1E7043408EB98
:107F000006003C442A46B9F1000F0DD02146ABEBE8
:107F1000050B03F0BFFFDA452E443F6855464FF08E
:107F2000000428BF5D46E1E701462046EFE7FFF782
:107F300096BDF8B546790146721E05460023934268
:107F40002D6803D30024A64202D8F8BD0133F6E71A
:107F50000F682846FFF7BEFD01343946F3E72DE9E7
:107F6000F843068ACD1C0746FFF790FD043E3544D2
:107F70000446B5FBF6F5F0B14FF48073EDB28380A3
:107F8000C680013D076081464FF00008A84512D227
:107F90003846FFF77BFD064648B1637901336371CC
:107FA00008F10108C9F8000007608146EEE72046A5
:107FB000FFF7BFFF34462046BDE8F88301210430B7
:107FC000FFF72FBD10B5012104460430FFF735FD42
:107FD00010F0FF0F04D12046BDE81040FFF7A9BF05
:107FE00010BD1FB503920022009203AAFFF75CFFA9
:107FF00005B05DF804FB1FB503920122009203AAAD
:10800000FFF752FF05B05DF804FB41DF7047000049
:10801000064B10B500241C70054B1C60BFF35F8F2E
:108020000449054800F039F8204610BD842A002094
:10803000882A0020B0C902007C2A002007B500234E
:108040000DF107008DF80730FFF7A0FAF1EE103AB6
:1080500023F09F03E1EE103ABFF35F8F094B4022FC
:10806000C3F884219DF80700FFF7B4FA03F0FAFC87
:1080700020B1FFF7CAFF03B05DF804FB20BF40BF8B
:1080800020BFF8E700E100E0836800225A60C3E9FE
:1080900004229A60DA601A6070470B684A6843608D
:1080A000934208BF0023016008BF436070474368E4
:1080B00043B10268916852680B449342436004BF25
:1080C00000234360704770B5446806460D4620683B
:1080D00018B1B3682946984718B923682B60256002
:1080E00070BD2468F3E74368186808B102681A6035
:1080F00070474368186870474368186800B970474C
:10810000884203D102681A60012070470346006864
:10811000F4E7000010B50D49A1F59472914201D821
:1081200000200FE08C1AE30F03EBE4035B1002EB7B
:10813000C30452F83330834205D802D204F1080256
:10814000ECE7606810BD2146E8E700BFBCCE020046
:1081500008B5FFF7DFFF024B002808BF184608BD2F
:108160007FCD02000B4B1B685A1C05BF0A4B0B4A04
:108170000B4A10680ABF1B781068C0F30310062B67
:1081800005D1033803288CBF002001207047002050
:10819000704700BF30010010E00F00F0E80F00F062
:1081A00034010010074B1B78062B09D1064B1B68C6
:1081B000C3F30313033B032B02D8044AD05C70477C
:1081C00000207047E00F00F0E80F00F0C4CE02007E
:1081D00008B5FFF7C7FF28B1834B844A1B68C3F378
:1081E00004231360FFF7DEFF10B1814B814A1A6050
:1081F000FFF7B8FF28B1804B804A1B68C3F34233B6
:108200001360FFF7CFFF20B17D4AD36823F080735E
:10821000D360FFF7A7FF40B14FF080430022C3F8BF
:108220000C21C3F81021C3F83825FFF7BBFF10B1AC
:10823000744B03221A60FFF7B5FF40B1724B052261
:108240001A6001229A6700229A603F225A606F4B9F
:108250001A68511C0BBF6E4B6E4B1A781B6802BF1D
:1082600008331B68C3F30313062A4DD1033B032BCA
:108270004AD8694AD35C002B46D04FF08052674BF6
:10828000D2F80414C3F82015D2F80814C3F8241542
:10829000D2F80C14C3F82815D2F81014C3F82C1512
:1082A000D2F81414C3F83015D2F81814C3F83415E2
:1082B000D2F81C14C3F84015D2F82014C3F84415A2
:1082C000D2F82414C3F84815D2F82814C3F84C1572
:1082D000D2F82C14C3F85015D2F83014C3F8541542
:1082E000D2F83414C3F86015D2F83814C3F8641502
:1082F000D2F83C14C3F86815D2F84014C3F86C15D2
:10830000D2F84424C3F87025FFF72CFF28B1444B62
:10831000444A1B6803F04F031360FFF723FF48B183
:108320004FF08043D3F80024D20744BF6FF001021E
:10833000C3F80024354B1B68062B0CD1354B1B684A
:10834000033B032B07D8384AD35C23B1374A136861
:1083500043F480631360364AD2F8883043F47003E4
:10836000C2F88830BFF34F8FBFF36F8F4FF01023E9
:10837000D3F80022002A03DBD3F80432002B2FDAD3
:108380002C4B0122C3F80425D3F80024002AFBD08B
:108390004FF010221521C2F80012D3F80024002A51
:1083A000FBD04FF010231522C3F80422214B1A46AC
:1083B000D3F800140029FBD00021C3F80415D2F82B
:1083C0000034002BFBD0BFF34F8F19491A4BCA68FA
:1083D00002F4E0621343CB60BFF34F8F00BFFDE7B1
:1083E000164B174A1A6008BD24030010403501409F
:1083F00074C007400DF0ADBA440200103C050040C7
:10840000F0ED00E0A00500401056004030010010E3
:10841000E00F00F034010010BCCE020000C00040AC
:1084200058020010E40E0040C0CE02003C1700408D
:1084300000ED00E000E001400400FA051C230020EC
:108440000090D003044B1A5C012393404FF0A042EC
:10845000C2F80835704700BFC8CE0200044B1A5C52
:10846000012393404FF0A042C2F80C35704700BF83
:10847000C8CE020008B50020FFF7F0FF0120FFF78B
:10848000EDFF0220FFF7EAFFBDE808400320FFF7F9
:10849000E5BFC20708B501460CD54FF0A043032243
:1084A000C3F84427C3F84827C3F84C27C3F850271C
:1084B000FFF7E0FF8B070AD54FF0A0430C22C3F86B
:1084C0003427C3F83827C3F83C27C3F8402708BD32
:1084D00038B5074C051E04F1080318BF1C46236875
:1084E0002BB11A6822605B6828469847F7E738BDC9
:1084F000942A002020B9054B01225A70FFF7E8BFEB
:10850000012802D1014A9070F8E770478C2A0020B8
:1085100020B9034B01225A70FFF7DABF704700BF42
:108520008C2A002038B50E4C2378B3B90D4863600F
:10853000A3602361E36000F0E5F8054603F092FADA
:1085400008B900F0EBF801232370074BD3F800348F
:108550000BB10123A370284638BD8525F5E700BF80
:108560008C2A0020F58402000000014037B50D4C34
:1085700000230DF107008DF80730FFF707F8E368D7
:10858000013BE360E36833B9074BD3F8005415B9F6
:1085900000F0D6F8A5709DF80700FFF71BF803B0B0
:1085A00030BD00BF8C2A002000000140012813B517
:1085B0000CD0032820D038B9124B0122C3F88020F8
:1085C000BFF34F8FBFF36F8F02B010BD0E4C00236F
:1085D0000DF107008DF80730FEF7D8FF23780BB9AF
:1085E000FFF7A0FFE3689DF807000133E360012374
:1085F000A370FEF7EFFFE7E700F090F8FFF7B6FF94
:10860000E2E700BF00E100E08C2A00201FB50378FC
:108610008DF800304368019383688DF80830C36893
:10862000054A0393054B684653F8213052F8211050
:10863000984705B05DF804FBA02A0020A42A00207A
:108640001FB503788DF800304368019383688DF877
:108650000830C368054A0393054B684653F8213038
:1086600052F82110984705B05DF804FBA02A0020BD
:10867000A42A0020F0B5194B90F800C091F81DE035
:1086800043F82C20164B16460A6943F82C20154B4C
:1086900003F80CE00C4607460FCC89B06D460FC5B9
:1086A00094E80F0085E80F00CDF810C0BEF1000F70
:1086B00009D0002E0C4A694608BF3246381D00F02A
:1086C00095FD09B0F0BD002E084A694608BF324644
:1086D00007F10C0000F080FBF3E700BFA42A0020A4
:1086E000A02A0020A82A00200D8602004186020050
:1086F00000F18040002382B0036003680193019B76
:1087000002B07047044A137923B9012110609180A7
:108710001846704785207047AC2A0020074B1A681E
:10872000D20704D4C02283F8002301221A604FF03C
:1087300080430122C3F81825704700BF00E100E024
:108740004FF0804208B50223C2F808334FF482701C
:10875000FFF7CEFF034B01211960D2F81834DB0379
:10876000FBD408BD0C000040124B1B6810B573B160
:108770004FF48070FFF7BCFF4FF080430122C3F835
:1087800008230D4B587910B95A711B6898470B4B49
:108790001B6873B14FF48270FFF7AAFF4FF080435C
:1087A0000222C3F80823044BBDE810401B680120D7
:1087B000184710BD00010040AC2A00200401004011
:1087C00000F1804000F5C040002382B003600368E0
:1087D0000193019B02B07047800000F1A040D0F8E7
:1087E000002722F44032C0F80027D0F8003743EACF
:1087F0000141C0F800177047054B4FF0FF320728C2
:1088000043F8202084BFC01880F84820704700BF7C
:10881000B42A002010B51A4C94F858306BBB4FF0B6
:10882000FF3222FA03F1C90748BFE11803F101033F
:1088300048BF81F83020202BF3D10021C8B2FFF7C8
:10884000DBFF01310C29F9D1042200210D4803F08E
:108850004AFB0D4B602283F8062340221A604FF436
:10886000BE70FFF7ADFF094B4FF00042C3F8042381
:10887000012384F85830002010BD0820FCE700BF19
:10888000B42A0020082B002000E100E00060004036
:10889000034B93F85800003818BF0120704700BF01
:1088A000B42A0020F0B5364D2C1894F93040002C35
:1088B00064DA8C78C4F34004002C0BBF0823002337
:1088C0000C260826B34201D10420F0BD55F82370D0
:1088D00001373FD12E1845F8232086F8303014B9DF
:1088E000EA1882F848008A78540713D4D60733D59B
:1088F000820002F1A042D2F8004724F00204C2F83C
:108900000047204EC20800F007070124BC40B75CB6
:108910003C43B4548A780C7812F0020225D09B00B4
:1089200003F1804303F5C0430202D3F8101521F48C
:10893000473121F44071C3F810152404D3F8101501
:1089400002F4F85204F4403422430A43C3F81025D9
:108950000020BAE70133B5E74C7800F5E0724FF03C
:10896000A046A40046F82240CBE7083B2B4493F8EE
:10897000501041EA841483F85040E9E70820A4E746
:10898000B42A0020082B002038B51F4C251895F973
:108990003020072A16DD224492F848309B09032B29
:1089A0000BD14FF0A043D3F81015C14001F00101E5
:1089B0000231BDE83840FFF70FBF012B0CBF022189
:1089C0000321F6E7D3B2072B1CD8930003F18043B1
:1089D00003F5C043D3F8100540F00100C3F81005BB
:1089E00002F14000800080B2FFF7EAFE51B195F934
:1089F000303054F823302BB1012303FA02F2034B39
:108A0000C3F8042338BD00BFB42A00200060004032
:108A10000E4B034493F93020072A02DD0021FFF7B3
:108A2000DBBED3B2072B10D8930003F1804303F5CC
:108A3000C043D3F8101521F00101C3F8101501232C
:108A400003FA02F2024BC3F808237047B42A00204D
:108A5000006000404FF0A043D3F8103523FA00F037
:108A600000F00100704700002DE9F74F00244E4D43
:108A700001944FF48072012102F1804303F5C04359
:108A800090B21B68012B06D1D5F804330B4202D0FB
:108A9000FFF796FE0C430432B2F5907F4FEA410196
:108AA000EAD1424B1B68012B0CD14FF4BE70FFF78B
:108AB00087FE4FF0A04344F00044D3F820250192F4
:108AC000C3F8202514F0FF0F1AD0394F00250126D6
:108AD000344210D0AB0003F1804303F5C043D3F818
:108AE0001005D3F8101557F8253023B1C1F3014113
:108AF000C0F3042098470135082D4FEA4606E7D118
:108B0000002C48DA2A4D4FF0A0482A4E4FF00009B9
:108B1000012716F9013B5A1C31D0C3F3C20202A946
:108B20000A44DCB212F8042C03F03F0A03F00703F6
:108B300007FA03F31A4222D00AF5E073504658F8B8
:108B40002330C3F3014BBBF1020F0CBF0321022101
:108B5000FFF742FE07FA0AF3C8F8203505EB0A03CF
:108B600093F9303055F823304BB1A109032904D0D3
:108B7000BBF1020F12D1012901D15046984709F1EA
:108B80000109B9F1040FC4D1D8F820350193C8F810
:108B90002035002BB9D103B0BDE8F08FBBF1030F36
:108BA000EDD10229E8E700BF006000407C61004091
:108BB000B42A0020042B0020014B1B68184700BF7B
:108BC000102B00200E4B984237B50C4602D00020E7
:108BD00003B030BD00230DF107008DF80730FEF71C
:108BE000D5FC084B1D7915B901221C601A719DF83E
:108BF0000700FEF7EFFC002DE9D01120E8E700BFE9
:108C000000200040102B0020034B984201BF034B73
:108C100000221A601A71704700200040102B0020BB
:108C20000023435082B043580193019B02B0704728
:108C30000A4610B54FF48E71FFF7F2FF136A916880
:108C4000C95C136A01331362C0F81C1510BD8B692F
:108C50000A4610B54FF4847123B9FFF7E1FFD0F84D
:108C6000183510BDFFF7DCFF536AD168D0F818053E
:108C7000C854536A01335362F3E700001FB5012360
:108C80008DF80030044BCDE90110D3E9001268469D
:108C9000904705B05DF804FB182B002030B54C4818
:108CA000D0F8043313F4007F85B005464DD0D0F8DA
:108CB0002431002B49D04FF49271FFF7B1FF4FF4EC
:108CC0000173C0F80833434B93F829200AB90122F5
:108CD00042603F4902228DF80020D1F88024C1F87B
:108CE000802403929A690292DA6801920022C3E911
:108CF00006226846D3E9001290473548D0F81C3167
:108D00005BB134494A690B6A9A420A464AD991F8DA
:108D10002830002B46D1FFF78BFF2D48D0F8443187
:108D20008BB14FF4A271FFF77BFF2A4B93F82920F8
:108D30000AB1012202609A692AB10022586AD968F0
:108D40009A61FFF79BFF05B030BDD5F804335B0790
:108D5000D3D5D5F80831002BCFD01E4C1C48214666
:108D6000FFF775FF636AA2699A422346C5D1E2699B
:108D7000E1684AB12369E3600023606AA261E361AC
:108D80006362FFF77BFFB8E794F829200AB9012254
:108D90006A600F4A4FF40170C2F808030022586A53
:108DA0009A61EEE70A484FF48E71FFF739FF536975
:108DB000002BB2D051690291002391688DF80030E8
:108DC000019153616846D2E900139847A5E700BFB7
:108DD00000200040182B00202DE9F843544B057962
:108DE00091462C2202FB0532064692F82A200C46B8
:108DF0009846002A40F098804E490068FFF7E2FE4E
:108E00000746002840F0928021683368481C0BD048
:108E10004FF0A04001228A40C0F8082501F5E07219
:108E20004FF0030C40F822C06068421C1FBF00F5E1
:108E3000E0724FF0A04C4FF0000E4CF822E0A26917
:108E4000C3F8242594F814C0627DBCF1010F4CEAEC
:108E50000202C3F86C25C3F81405C3F80C151DD124
:108E6000A1684A1C1FBF01F5E0724FF0A0404FF00F
:108E7000000C40F822C0E268501C0BD04FF0A04C10
:108E800001209040CCF8080502F5E0704FF0030E89
:108E90004CF820E0C3F80825C3F810152C236B43C9
:108EA00008EB0302C2F80490226948F80320B9F1E4
:108EB000000F21D03068247F4FF48E71FFF7B0FE91
:108EC0004FF4A2713068FFF7ABFE32681A4BC2F85C
:108ED0000433110B42F307326301002ADBB21EDBBD
:108EE0001648841884F800330123520901F01F0149
:108EF00003FA01F140F8221033680422C3F8002578
:108F00002C2303FB05830022C3E9062283F82920D2
:108F10005A61012283F82A203846BDE8F883084ABE
:108F200001F00F015354E7E70827F5E71127F3E7AE
:108F3000182B00209D8C02008000020000E100E060
:108F400014ED00E0F8B503680479304D0022C3F851
:108F500000252C2202FB04525268A2B12C4AC3F80D
:108F600008231A0B43F30733002B0CDB02F01F011D
:108F70005B0901228A402033264941F82320BFF3B0
:108F80004F8FBFF36F8F0068D0F80C65D0F81415C1
:108F9000D0F80835D0F810254FF0FF37BE42C0F8A2
:108FA000147518BF06F5E076C0F80C75C0F80875A2
:108FB000C0F810751EBF4FF0A0474FF0020C47F8E5
:108FC00026C04E1C1FBF4FF0A04601F5E0710227DE
:108FD00046F82170511C1FBF4FF0A04102F5E0720E
:108FE000022641F822605A1C1FBF03F5E0734FF0C0
:108FF000A042022142F82310FFF706FE2C2303FBB8
:109000000454002384F82A306360F8BD182B002034
:109010008402020000E100E02DE9F047204F90F8C3
:1090200004904FF02C0808FB097405466669002E71
:1090300034D162610068A16026624FF48E7184F8B9
:109040002860FFF7EDFD2868012383602146FFF7C4
:10905000EFFD6368A0468BB92868D4F814A0236A92
:109060009A4511D82A68D2F81C31002BFBD0012375
:10907000D3602C2303FB097300225A613046BDE8FC
:10908000F08794F828303BB9D0F81C31002BF8D089
:109090004146FFF7CDFDE2E70F26EAE71126EDE7AF
:1090A000182B00200023435082B043580193019BAA
:1090B00002B070471FB501238DF80030044BCDE995
:1090C0000110D3E900126846904705B05DF804FB33
:1090D000442B00207FB5434AD2F82461002E60D093
:1090E00010464FF49271FFF7DDFF02238DF8003038
:1090F000D2F88034C2F880340393D2F83C3502931E
:10910000394BDA6801920022C3E906226846D3E9A6
:10911000001290473348D0F8443173B14FF4A27134
:10912000FFF7C0FF304B9A693AB10022C3E906222B
:10913000D968D0F83C05FFF7BDFF2A48D0F82031A8
:10914000ABB14FF49071FFF7ADFF0123C360264B25
:109150005A6962B1D0F84C150291002299688DF8D5
:10916000002001915A616846D3E9001290471D48DA
:10917000D0F858319BB14FF4AC71FFF793FF1A4B05
:109180005A6962B1D0F84C150291002299688DF8A5
:10919000002001915A616846D3E90012904704B05B
:1091A00070BDD2F81031002BB4D04FF48871104646
:1091B000FFF778FF0C4BD2F83C0599698842A9D19A
:1091C000DC69D96864B1D2F8005225F02005C2F8F4
:1091D00000521A699C61DA60DE61FFF76BFF99E764
:1091E0009C61FAE700200040442B00202DE9F84361
:1091F0005B4B06799146242202FB0632044692F824
:1092000020200D469846002A40F0A5805549006868
:10921000FFF7D8FC0746002840F09F8029682368A4
:10922000481C0BD04FF0A04001228A40C0F808250E
:1092300001F5E0724FF0030C40F822C06868421C50
:109240001FBF00F5E0724FF0A04C4FF0000E4CF83D
:1092500022E0AA69C3F8242595F814C06A7DBCF100
:10926000010F4CEA0202C3F86C25C3F80C15C3F8D1
:1092700014051DD1A9684A1C1FBF01F5E0724FF00B
:10928000A0404FF0000C40F822C0EA68501C0BD000
:109290004FF0A04C01209040CCF8080502F5E0709A
:1092A0004FF0030E4CF820E0C3F80825C3F8101562
:1092B0002423734308EB0302C2F804902A6948F898
:1092C0000320B9F1000F30D020682A7F4FF4887155
:1092D000FFF7E8FE20684FF49071FFF7E3FE206887
:1092E0004FF49271FFF7DEFE20684FF4A271FFF792
:1092F000D9FE4FF4AC712068FFF7D4FE23681A49F9
:10930000C3F80413190B43F307335201002BD2B2F5
:109310001CDB1648C51885F8002301225B0901F003
:109320001F0102FA01F140F8231023680822C3F854
:109330000025242303FB06830022C3E906225A6189
:10934000012283F820203846BDE8F883084B01F05D
:109350000F015A54E9E70827F5E71127F3E700BFA3
:10936000442B0020D59002001003420000E100E0F1
:1093700014ED00E0F8B5444D0479242303FB0453B5
:1093800002465B680068ABB1404BC0F8083340F35D
:109390000733002B4FEA10310CDB01F01F065B098D
:1093A0000121B14020333A4E46F82310BFF34F8FCE
:1093B000BFF36F8FD0F8003223F02003C0F80032E3
:1093C000242303FB04539B692BB14FF4A271FFF7D5
:1093D00069FE012343604FF4AC71FFF763FE012384
:1093E000C360242303FB0453D0F858110029FBD099
:1093F000996919B1D0F844110029F5D00023C0F8BB
:1094000000351368D3F80C75D3F81465D3F8082524
:10941000D3F810154FF0FF3C6745C3F80CC518BFD3
:1094200007F5E077C3F814C5C3F808C5C3F810C53D
:109430001EBF4FF0A0434FF0020C43F827C0771C2B
:109440001FBF4FF0A04306F5E076022743F82670D1
:109450004E1C1FBF01F5E0714FF0A043022643F8F8
:109460002160531C1FBF4FF0A04302F5E0720221A0
:1094700043F82210FFF7C8FB242303FB0454002306
:1094800084F820306360F8BD442B002010034200B4
:1094900000E100E001F06043B3F1005F2DE9F0412D
:1094A000064638D11E4B0779242505FB073598461B
:1094B0006C69002C31D16A610068A9604FF4907129
:1094C000FFF7F0FD4FF4AC713068FFF7EBFD336848
:1094D0006A69A968C3F84415C3F8482501229A604F
:1094E0006A68AAB9D3F82021D3F858411AB9002CD8
:1094F000F8D00F2407E0002CFBD10122DA60D3F86A
:109500005821002AFBD0242303FB078700237B611B
:109510002046BDE8F0811024FAE71124F8E700BFE7
:10952000442B00200023435082B043580193019BF9
:1095300002B07047F0B51A4C437944F82320194C17
:1095400003EB4303E35C43BB90F904508B7802794F
:109550005B01002DDBB21BDB134E771987F800335C
:1095600001236D0902F01F0203FA02F246F82520DA
:1095700003680A88C3F8082543790879C97803EB9A
:109580004303E218507091700122E2540020F0BDB4
:10959000064D02F00F02AB54EAE70820F7E700BFE0
:1095A0006C2B0020682B002000E100E014ED00E0AF
:1095B000036801221A604379024A03EB4303022144
:1095C000D1547047682B00200368044901225A6077
:1095D000437903EB4303CA54704700BF682B002054
:1095E000024610B500680C464FF48071FFF79AFFF1
:1095F00013680122C3F844230CB1C3F8042310BD3F
:1096000003680122C3F84823C3F808237047000009
:109610002DE9F041224E234FDFF88C8000244FF4D7
:109620008035D7F80433A6F580412B4289B20CD09F
:10963000336853B1C7F848533846C7F80853FFF7A3
:1096400071FFD8F80030E0B298470134042C4FEA9B
:10965000450506F10406E4D11248D0F80433DA07D0
:109660000AD5D0F800313BB14FF48071FFF75AFFB3
:109670000D4B20461B6898470A48D0F804339B07D7
:109680000CD5D0F804314BB14FF48271FFF74AFF8B
:10969000054BBDE8F0411B6805201847BDE8F08187
:1096A00040410240004002406C2B00200023435008
:1096B00082B043580193019B02B070478B6A4A6B9A
:1096C0009A4210B54FF0010305D2496A8A5CC0F88E
:1096D0001C251A4604E091F82C201AB1C36100221F
:1096E000104610BD0C6A640603D5C36181F82D30A5
:1096F000F6E74361EDE770B5D0F8046104460D4626
:1097000026B14FF48271FFF7D1FF012695F82F2083
:1097100022B34FF492712046FFF7C8FF4FF48E71C9
:10972000FFF7C4FF4FF48471FFF7C0FF002E67D02E
:1097300095F82F20002385F82D3082BBAB6A696B2A
:1097400099421CBF1646052386F001061CBFC4F8CB
:109750000025C4F8003585F82F6021E0D4F82431C5
:109760004BB14FF492712046FFF7A0FF01236361D4
:1097700085F82F30DAE7D4F81C319BB14FF48E71A5
:109780002046FFF793FF6B6B01336B63D4F82431F2
:10979000002BE6D12946FFF791FF0028C6D1002211
:1097A000104670BDD4F80831002BBFD04FF484713F
:1097B0002046FFF77BFFD4F82431002BD1D16B6B0F
:1097C000A96A8B42B2D2696AD4F81805C8546B6B87
:1097D000A96A0133481E83426B6308D1286A400698
:1097E00010D40223C4F80032012323629EE78B4287
:1097F000FAD12B6A5B0699D5022385F82D30CFE785
:109800000122CDE78B42EFD1F6E7000037B5344BAC
:1098100001930D464FF482710446FFF747FF4FF462
:109820009271FFF743FF4FF48E71FFF73FFF4FF444
:109830008471FFF73BFF00236B6385F82F30AB6A21
:10984000012B17D12B6A5B0614D40223C4F8003213
:109850000123236295F82D20022A18BF23602B686C
:1098600093B140F28623AB60AB68C4F804330020A8
:1098700003B030BD0123E9E729462046FFF73BFF4F
:1098800028B1019B013B0193019B002BF4DC95F86F
:109890002F0050B9019B002BEADC0023C4F80035EF
:1098A0000523C4F800350320E2E7D4F8C434C4F833
:1098B000C43493B113F0010F14BF4FF402400320DE
:1098C00048F2012213F0020F18BF104613F0040FE4
:1098D00048F2022318BF1846DCE70320DAE700BF8E
:1098E000A086010037B5314B01930D464FF48271CC
:1098F0000446FFF7DBFE4FF49271FFF7D7FE4FF4FB
:109900008E71FFF7D3FE4FF48471FFF7CFFE002373
:10991000C0F800326B6385F82F300123036295F89D
:109920002D209A4218BF83602946FFF7C7FE2B6897
:1099300083B140F28623AB60AB68C4F804330020E7
:1099400003B030BD29462046FFF7D5FE28B1019B64
:10995000013B0193019B002BF4DC95F82F0050B9DB
:10996000019B002BECDC0023C4F800350523C4F870
:1099700000350320E4E7D4F8C434C4F8C43493B108
:1099800013F0010F14BF4FF40240032048F20122EC
:1099900013F0020F18BF104613F0040F48F2022311
:1099A00018BF1846DCE70320DAE700BFA0860100F5
:1099B000F0B52A4C87B021464FF04020FFF79BFEC0
:1099C000A446E0B994F82F60276AEEB9237B9A1E6B
:1099D000012A19D8616AA269914215D1E2696262CD
:1099E000C7F340176269A262032B84F82C7084F8D5
:1099F0002D6021464FF0402003D1FFF773FF07B0E1
:109A0000F0BDFFF703FFFAE7154D0FCD01AC0FC412
:109A10002B682360FEB14FF04022D2F8C434C2F864
:109A2000C43498070ED501238DF8003000238CF83C
:109A300030307B0701D5002EE1D0DCE900316846EB
:109A40009847DCE7590701D50223EDE7DA074CBF59
:109A500003230423E8E78DF80060E7E7702B00207C
:109A60007C2B00202DE9F84F0779314E4FF03C0A4E
:109A70000AFB07FA06EB0A059B4695F82E3080464E
:109A80000C469146002B4FD12A490068FFF79AF8FF
:109A900000284BD12168637B85F8383001F5E072EE
:109AA0004FF0A043A860C5F804B085F8300085F8F1
:109AB0002D0085F8310040F20C6546F80A9043F815
:109AC0002250626802F5E07C43F82C50D8F8003050
:109AD000C3F80815C3F80C25A268C3F82425B9F10A
:109AE000000F14D0227B43F3073152010029C3F346
:109AF0000733D2B213DB104C651885F8002301221E
:109B0000490903F01F0302FA03F344F821303C2310
:109B100003FB0766012386F82E30BDE8F88F07495E
:109B200003F00F03CA54F2E70820F6E71120F4E728
:109B3000702B0020B199020000E100E014ED00E07C
:109B4000026803790521C2F80015044A3C2101FB93
:109B50000323022283F82E20704700BF702B0020C1
:109B60002DE9F047324E90F80480D0F800903C2365
:109B700003FB08630C4693F82D30012B174604D1E4
:109B80000B78012B06D1082011E0022B02D10B78B3
:109B9000012BF8D13C25274BC9F8083305FB086594
:109BA00095F830302BB1AB68C9F804331120BDE80B
:109BB000F08787F00403C3F3800385F830302F6209
:109BC000A646BEE80F0005F10C0CACE80F00DEF86D
:109BD0000030CCF800306368AB62E3686B62637896
:109BE000C9F888352378C8EB081A012B06EB8A0AD6
:109BF00019D0B3B9C7F340173C2303FB08635146A0
:109C000083F82C704846FFF76DFE3C2303FB08F8F1
:109C100006EB080256F80830002BC8D182F8303025
:109C2000C5E70127E8E751464846FFF7EFFDECE7B7
:109C3000702B00208642040010B586B00024CDE9C8
:109C400002349DF820308DF80510A342CDE904249C
:109C500001A914BF202222468DF80440FFF780FF9F
:109C600006B010BD10B586B0012402930023CDE9E3
:109C700003328DF805101A4601A98DF804400593AA
:109C8000FFF76EFF06B010BD1FB503788DF80030EA
:109C90008388ADF8043083688DF80630C3688DF88A
:109CA0000730036902934369054A0393054B6846ED
:109CB00053F8213052F82110984705B05DF804FBA5
:109CC000AC2B0020B42B0020024B4FF4807043F0EB
:109CD0000103184700CF02002DE9F047174690F81E
:109CE0000090324A42F82970314A42F829304B7BC1
:109CF00080460C4663B30868496882008B0002F115
:109D0000A04203F1A04340F20C65C2F800570126BF
:109D1000C3F800574FF0A04506FA00F006FA01F12B
:109D2000C5F80805C5F8081540F20D61C2F800171E
:109D3000C3F80017FFF7C8FF4FF0000AD5F8102549
:109D4000636822FA03F3DB070ED5BAF1000F1ED1C8
:109D5000002F184A4B4608BF3A46214608F1040036
:109D6000BDE8F047FFF77EBE236806FA03F3C5F8A7
:109D70000C35FFF7A9FF236806FA03F3C5F8083589
:109D80000AF1010AFFF7A0FFBAF1090FD6D1636803
:109D900001254FF0A04605FA03F3C6F80C35FFF78E
:109DA00093FF63689D40C6F80855D1E7B42B0020A7
:109DB000AC2B0020899C020072DF704773DF704774
:109DC00076DF70477ADF70477CDF70477FDF704750
:109DD0008FDF7047B1DF7047FDF78EB908B5064BCE
:109DE00001211878FFF7EAFF08B1FDF785F9BDE812
:109DF00008400020FEF726BB542300200388212BB7
:109E000013B504464ED007D8112B2DD0132B41D0BB
:109E1000102B0CD002B010BD522B4BD0562B01D0C2
:109E20003B2BF7D1A0881321FFF7CAFF17E0254B82
:109E300025482649C01AC008000440F00300FCF77A
:109E400045FE0020FEF70AFB214BA188214819801E
:109E500001F062FC08B1FDF74FF9FDF70BF900289E
:109E6000D8D0FDF749F9D5E7164B17481A49C01A5B
:109E7000C008000440F00300FCF728FE144B4FF626
:109E8000FF721A80FDF70CF908B1FDF735F9FFF7FD
:109E9000A5FFBFE70E4800231A4685210088FFF77B
:109EA00095FFDCE7002301A98088ADF80430FFF7B7
:109EB0008FFFD4E7064800231A4619460088FFF7AB
:109EC00089FFCCE788C60200C0C6020006CF0200A8
:109ED00056230020182D002010CF020008B503786B
:109EE0004BB9054B3B211888FFF76AFF18B1BDE855
:109EF0000840FDF701B908BD5623002010B50A4BF4
:109F00000A4CE41AE408240444F0030402203AB1A1
:109F1000FEF798FA06492046BDE81040FCF7D6BD8A
:109F2000FEF79CFA0349F6E788C60200C0C60200A5
:109F30001DCF02002ECF0200042870B507D1274B99
:109F400027481A6864321A60196800F099FD254B99
:109F50001B78012BDCB23FD1204B234D196829809F
:109F6000224889B200F08CFD214B1A88214B1B88B6
:109F70009A420CD3204800F083FD2046FEF762FA97
:109F80001E4B1F481C70BDE8704000F079BD1D4B92
:109F90001A681D4B1B689A4201D81C48EBE71C4EFF
:109FA0002A883368033B9A4216D31A4800F068FDAA
:109FB0000020FEF747FA184B2A881C7033689A4233
:109FC0000AD3164800F05CFD0020FEF747FA204651
:109FD000BDE87040FEF736BA70BD00BFA82C002067
:109FE00040CF0200BC2B0020562C00204ACF02009C
:109FF0005E2C0020542C00205DCF02002C2D002070
:10A0000076CF0200842C0020942C00208CCF0200FC
:10A01000682C0020A7CF0200992C0020B7CF0200A7
:10A02000FDF76AB81FB51B211A22CDE900124FF0C7
:10A03000CC720023029202228DF80C200848ADF861
:10A040000D301A4669468DF80F30FFF745FE08B10E
:10A05000FDF752F80348FFF773FD05B05DF804FB08
:10A06000F0D00200F4D00200030903EB830300F0F8
:10A070000F0000EB4300C0B2704700002DE9F04F25
:10A080000D288BB005D00E2800F09582FDF734F82E
:10A0900073E03B4B3B483C4C3C49C01AC0080004B1
:10A0A00040F00300FCF712FD23783948C3F10103A7
:10A0B000DBB22370217800F0E3FC23783548364C7E
:10A0C000012BDDB240F08080FFF772FA314829465B
:10A0D000FFF786FA314B324800221A708DF81820AB
:10A0E00000922B4606AA6821FFF7A6FD08B1FDF7EE
:10A0F00003F8294A2A4808236821FFF7B3FD08B16D
:10A10000FCF7FAFF244E274F00253078FFF7ACFF0D
:10A11000294606F8010B02460135384600F0B0FC2E
:10A12000072DF2D1617823783C2212FB0132A3780B
:10A130004FF4616101FB03221B49E37801FB032318
:10A140001A491B4A08681B4913601B4A09681368AF
:10A15000884203F1010307D31848194C0178247889
:10A160008C4207D1002101701360164A1368013335
:10A17000136002E00131136001700BB0BDE8F08F95
:10A1800088C60200C0C60200BC2B0020D5CF02004A
:10A19000EFCF0200E8D00200242D00202D2D00205A
:10A1A000F4D00200FBCF020080510100842C00207B
:10A1B0009C2C0020282300204C2C00202023002051
:10A1C0002C230020602C0020FFF7FEF9C148FFF788
:10A1D00017FAC14B02931A88B2F5C87F07D2BF4A5B
:10A1E0001368013B1360BE4A1368013B13600023F0
:10A1F0008DF814300093BB48012305AA6821FFF7AE
:10A200001BFD08B1FCF778FFB74AB6480823682160
:10A21000FFF728FD08B1FCF76FFFB34EB34F0025E1
:10A220003078FFF721FF294606F8010B0246013579
:10A23000384600F025FC072DF2D162782178AC4D2C
:10A240003C2313FB0213A1784FF4616202FB01333C
:10A25000E178A84AA84C02FB01312B68216003B1C8
:10A26000CB1AA64FA6483B6000F00AFC2968A54817
:10A27000A54E00F005FC3968A44800F001FC2368F5
:10A280002B600120FEF7EAF80020FEF7E7F8022035
:10A29000FEF7E4F89E4A9F4D92F90030022B1CBF56
:10A2A000013313702B78032B04BF00232B70029B08
:10A2B0001988994B90461A880A4492B21A80974B93
:10A2C0001B784FF0140C0CFB03F0325000221046A8
:10A2D0005FFA82FE0CFB0EFE013256F80EE070446F
:10A2E0005FFA82FE734580B2F2D203F1010EB0FB39
:10A2F000FEF203928A4A039810802E788948DFF88C
:10A300005CC240F83610002298F90080ACF80020BA
:10A31000924691465FFA82FBC34502F1010240F387
:10A320003B81BAF1000F01D0ACF8009000EBC60001
:10A33000DFF82892D7F800B0C0F804B07A48B9F82E
:10A340000020DFF8E0A108F1010C92FBFCF2A9F873
:10A3500000200022026091461746B84580F2248111
:10A360000AB1C0F800900268B2FBFCF202605C4ADD
:10A37000D2F800C0644A1420013600FB03202E707E
:10A380000025C0F804C090462F461646D8F80400B1
:10A3900001350744E8B2834208F11408F6D2B7FB4E
:10A3A000FEF762484D4D0760142000FB0366D5F8A8
:10A3B0000080DFF854A1C6F808804FF00009484635
:10A3C000DAF8086009F1010930445FFA89F6B3420E
:10A3D0000AF1140AF4D2B0FBFEF0554EDFF82891D2
:10A3E0003060544E36884FF0140E0EFB039E0E4420
:10A3F000B6B24FF0000ACEF80C60D646D9F80C6021
:10A400000AF1010AB6445FFA8AF6B3421FFA8EFED9
:10A4100009F11409F2D2474EA6F800E0464EBEFB01
:10A42000F8FEDFF83C81A6F800E0374E4FF0140E3E
:10A430000EFB036ED8F800604FF000095E44CEF8C2
:10A440001060CE46166909F10109B6445FFA89F633
:10A45000B34202F11402F5D2BEFBFCF3374AC8F84E
:10A4600000E013601023B3FBF7F7354B1F60039B2D
:10A47000B3FBF0F307EE903A324B334893ED007A9A
:10A48000324BF8EEE77A67EE877AFCEEE77AC3EDB7
:10A49000007A00F0F5FA21682D4800F0F1FA2368FF
:10A4A0002C4A2D481BBA0693029B1B885BBAADF859
:10A4B0001C302B885BBAADF81E30094B1B885BBA89
:10A4C000ADF8203000231360029A138000F0D8FA10
:10A4D00048E000BFE8D00200562C00204C2C0020A1
:10A4E000602C0020F4D00200242D0020FBCF0200BD
:10A4F000A02C0020805101009C2C0020842C0020E6
:10A5000006D0020013D00200C02B002020D0020091
:10A5100040230020982C00205E2C0020A42C00203A
:10A52000542C00206C2C00208C2C0020642C00204B
:10A53000502C00205C2C0020582C0020882C00205F
:10A54000942C00202423002033D00200682C00200B
:10A5500052D00200A82C002064D002005A2C002007
:10A56000902C0020344B3549188806AA01F0BAF91E
:10A570000446334800F084FA34F008033FF4FDAD9C
:10A5800043F202039C423FF4F8AD43F201439C4284
:10A590003FF4F3AD204679E550F83BA0D1441FFAD3
:10A5A00089F94FF0010AB5E60AEBC7020137526894
:10A5B00091440122D1E6234A23481378234C244DA9
:10A5C000244EC3F10103DBB21370117800F058FA86
:10A5D0002148FEF7EDFF20480121FFF701F822682E
:10A5E00040F6B8339A4211D90120FDF737FF002019
:10A5F000FDF734FF0220FDF731FF1748FEF7E4FFB7
:10A600001548FEF7FDFF00232360B6E521682846C4
:10A6100000F036FA114B32881B889A4203D301208E
:10A62000FDF710FFDBE70E4B1A680E4B1B689A42D2
:10A63000F5D90020F4E700BF56230020002D0020AC
:10A640008FD00200BD2B0020A6D00200A82C002035
:10A65000B4D002005E2C0020E8D00200542C002070
:10A66000842C0020942C002000B54FF48041A7B02A
:10A670000020FCF797F808B1FCF73EFDFBF7C6FF9A
:10A680000120FDF706FFFCF753FE08B1FCF734FD8F
:10A690007A4840F233320221FCF796FC08B1FCF70D
:10A6A0002BFDFDF7B5FC08B1FCF726FD01F09CF988
:10A6B00008B1FCF721FD002317A90120179301F031
:10A6C0001BFA08B1FCF718FD17A801F0C7FA08B18A
:10A6D000FCF712FD11236A488DF8203001F058FC78
:10A6E000674982B208A8FFF76FFB08B1FCF704FDC9
:10A6F0000822002117A801F0F6FB624A4FF0C87348
:10A7000017A8CDE91723FFF75DFB08B1FCF7F4FCB0
:10A710005D48002100F0F8FE08B1FCF7EDFC0023D5
:10A7200008935A485A4B179317A900F0E3FF08B152
:10A73000FCF7E2FC574B5848089308A901F062F86F
:10A7400008B1FCF7D9FC4FF4A053ADF80430524BDC
:10A75000524C9B7C8DF806303C22002108A801F069
:10A76000C2FB02238DF820303C2240F2016300211D
:10A7700017A8ADF8223001F0B6FB22460123ADF850
:10A780006C3052F8041B01AB08A81C9300F00FFAC0
:10A7900008B1FCF7B1FC424AA16817A800F007FA1B
:10A7A00008B1FCF7A9FC1822002102A801F09BFBCC
:10A7B0004FF47A73ADF8143001238DF8083000237C
:10A7C00003934FF48073ADF81C303449354840236F
:10A7D00002AA0493FFF7F0FA08B1FCF78DFC1C22E3
:10A7E000002117A801F07FFB00234FF4A022CDE940
:10A7F0001732ADF86A304FF4A0328DF86C302A4B26
:10A8000019921C930322294B8DF8682017A81D93D9
:10A8100000F096FC08B1FCF76FFC254B254A186840
:10A820009B881790ADF86030234840F6CC4317A9B9
:10A83000ADF85C30FEF77EFE08B1FCF75DFCFFF77B
:10A84000F1FB1D481D4CFEF7BFFE1B48FEF7D8FE6E
:10A850001B4B1C481C49C01AC008000440F00300F0
:10A86000FCF734F9FFF7BAFAFBF7ECFF0028FBD14D
:10A87000204600F005F9FDF7E1FBF5E73023002065
:10A88000BCD002005000A000EC2C0020182D0020AD
:10A89000D99D0200FD9E0200002D002044230020CF
:10A8A0005023002054230020DD9E020021A002003E
:10A8B000E2D00200399F0200E8D00200DDD00200A1
:10A8C00088C60200C0C60200C5D002000369C16884
:10A8D0008B429DBF8268D21802F1FF3203F1FF3331
:10A8E00094BF501A581A70472DE9F843D0E90294E2
:10A8F0000546A9EB04084068904520440F461444DF
:10A9000004D901F0C7FAEC60BDE8F8834246A4EB35
:10A91000090401F0BFFA6868224607EB0801F0E776
:10A920002DE9F843C5680646894617464FF00008EA
:10A930003469B3687068A54228BFE418013C621B03
:10A940005C1BBC4228BF3C46944228BF1446494683
:10A950002844224601F09EFAB3682544AB4208BF62
:10A9600000253F1BA044A144F560E1D14046BDE86D
:10A97000F883000010B5114C114AA2610223C4E90A
:10A980000433104BE361A2644FF400730E4A0F4985
:10A990002362E26400231022E01DA3626362E3628B
:10A9A000A3656365E365226501F0D0FA0849204696
:10A9B00001F0CCFA2023A37110BD00BF302D002080
:10A9C00000D10200B82D0020A82D002009D10200DE
:10A9D0000DD10200F8B5184C182300FB033503FB1A
:10A9E00000402544C46A012C0F4616460FD0022CA5
:10A9F0001AD0F4B92846FFF769FF864205D83246D7
:10AA000039462846FFF770FF34462046F8BD2846F1
:10AA1000FFF75CFF8642344628BF0446224639468B
:10AA20002846FFF761FFF0E72846BDE8F840FFF74A
:10AA300077BF0024E9E700BF302D002073B50E4B2F
:10AA40001B7804460D4616460BB9FFF793FF00230B
:10AA50000DF107008DF80730FCF798FD32462946C6
:10AA60002046FFF7B7FF04469DF80700FCF7B2FD4C
:10AA7000204602B070BD00BF302D0020FFF77ABF26
:10AA80000FB410B5A2B024AB802153F8042B01936E
:10AA900002A801F0F1F9802804460ADD802202A90B
:10AAA0000020FFF7CBFF204622B0BDE8104004B0E5
:10AAB00070470028F7DD0246F1E76DDF704779DF68
:10AAC00070477DDF704764DF70472DE9F04F85B038
:10AAD00000250E9CBDF83CB0B4F800A001910746DB
:10AAE00090461E46A9463A884A450DDC45B1238862
:10AAF000013BA3EB0A039BB2FF2B3AD806F80A30BE
:10AB0000002005B0BDE8F08F7A6852F82900039064
:10AB100000220DF10B0103A8FFF7D5FF0028F0D1AB
:10AB20009DF80B20424521D12288002D14BF002022
:10AB3000022002EB0801014459451ADC3DB90132FB
:10AB400092B2019B2280B354228801322280228853
:10AB50000DF10B01324403A8FFF7B5FF0028D0D157
:10AB600021889DF80B200A442280012509F1010962
:10AB7000B9E70C20C5E72DE9F341089FBDF8248013
:10AB80001546CDE90078022204461E46FFF79DFFD8
:10AB900050B93346102229462046CDE9087802B044
:10ABA000BDE8F041FFF791BF02B0BDE8F0812DE9AB
:10ABB000F04F00231788138090F82D3085B006469B
:10ABC0000D46144653B3082F01D80C2027E102A8E4
:10ABD000FFF773FF002840F0228123880822EA54FF
:10ABE000238801339BB21B222380EA542088013042
:10ABF00080B2208006220DF10901284401F04AF9B3
:10AC000023889DF8082006339BB212F0FE0218BF7D
:10AC100001222380EA54238801332380B378FBB1D7
:10AC200023880433BB42D0D802A8FFF748FF00288E
:10AC300040F0F58023880322EA54238801339BB235
:10AC400019222380EA542388BDF8082001339BB2DF
:10AC5000E9182380EA54120A4A70238802332380B9
:10AC6000F2789AB12388D91CB942AED80221E954AE
:10AC7000238801339BB201212380E95423880B44AC
:10AC80009BB22380EA5423880B4423807268AAB1C4
:10AC90002388D91CB94298D8022192F90020E9549E
:10ACA000238801339BB20A212380E954238801338E
:10ACB0009BB22380EA542388013323803389002BFD
:10ACC00040F0A180338A5BB1CDE900472B460722D3
:10ACD000032106F11000FFF74EFF002840F09F808F
:10ACE000338B5BB1CDE900472B461522142106F1C9
:10ACF0001800FFF740FF002840F09180326A002AD8
:10AD000040F09080D6F82480B8F1000F30D0B8F829
:10AD100004302188981C8A1C0244BA423FF655AF81
:10AD2000FE283FF652AF03336B54238801339BB2A6
:10AD3000FF222380EA54238801339BB22380B8F892
:10AD40000020EA54E918120A4A702088023080B2C2
:10AD50002080B8F804205AB1D8F8081000296BD028
:10AD6000284401F097F82388B8F80420134423807E
:10AD700096F82C30002B40F09A80307800284ED086
:10AD80003388012B58D0228802F1020CBC453FF6D3
:10AD90001CAF012805D17378023313449F42FFF49E
:10ADA00014AF023FBF1ABFB202A905EB0C00ADF809
:10ADB0000870FFF786FE90BB3178BDF80830022995
:10ADC00000F0BA8072789A4202D3BB4240F2B2805D
:10ADD000012940F0B380974293B2C0F0AF80ADF844
:10ADE00008300821BDF80830FE2B3FF6EEAE228871
:10ADF0000133AB542288013292B22280A9542288B6
:10AE0000134423800BE0CDE900472B4606220221A4
:10AE100006F10800FFF7AFFE00283FF453AF05B07E
:10AE2000BDE8F08FB4F800C00CF10603BB423FF65A
:10AE3000CCAE1188052901D80720F0E76FF4486EE1
:10AE400001EB0E039BB24FF27D3E7345F4D953885C
:10AE5000052BF1D96FF44860181880B27045EBD912
:10AE60004FF6FF70814203D0834201D09942E3D86C
:10AE7000052305F80C30238801339BB2122123806F
:10AE8000E954238801339BB223801188E954E818E0
:10AE9000090A4170238802339BB223805288EA5406
:10AEA000E918120A4A702388023323802AE7B36A1A
:10AEB000002BC1D04FF000094FF00C0A4FF0160BD9
:10AEC00096F82C305FFA89F293427FF656AFB16A5A
:10AED0000AFB02F201EB0208B8F80430981CFE28C5
:10AEE0003FF673AE208803332B54238801339BB283
:10AEF000238005F803B0238801339BB223808A5A4C
:10AF0000EA54E918120A4A702088023080B2208080
:10AF1000B8F804205AB1D8F8081000298CD0284479
:10AF200000F0B8FF2388B8F804201344238009F107
:10AF30000109C5E7092155E7BB42FBD9ADF8087007
:10AF40004FE775DF704776DF70477ADF70477BDF4A
:10AF500070470000034B1A8882420CBF184600203D
:10AF6000704700BFD42F0020024B9B6903B11847E4
:10AF7000704700BFB82F002073B585B22846FFF791
:10AF8000E9FF044670B1164E027A337B9A420BD227
:10AF900000F10A012846FFF7D4FFE8B1112801D0DB
:10AFA000FFF7E2FF02B070BD00230372337C43B1B0
:10AFB0003B212846FFF7C7FF30F0080301D0FFF719
:10AFC000D3FF7369002BEDD000228DF80420ADF87B
:10AFD000065001A89847E5E7237A01332372E1E799
:10AFE000B82F002037B50B46497A0F4A71B9D2E91C
:10AFF00001141D7A0246002D18BF21465868FCF73F
:10B00000D4F908B1FFF7B0FF03B030BD00211972C9
:10B010005369002BF8D00122ADF806008DF804200A
:10B0200001A89847F0E700BFB82F00204B8802889E
:10B030009A4213D842889A4210D380888A8840F274
:10B04000F313984294BF031AC31A934206D800F22E
:10B05000F310904234BF0020012070470020704759
:10B060000388122B70B5014659D004D8102B1ED07E
:10B07000112B44D070BD502BFCD12F4BC288DB89E3
:10B080009A42F7D1038A022BF4D186883046FFF723
:10B0900061FF05460028EDD001F1120000F03FF9F4
:10B0A00038BB6868FCF799F90028E3D009E0C37B56
:10B0B000012BDFD14FF6FF70FFF74CFF054620B99B
:10B0C0000420BDE87040FFF74FBF1C4A8E88068001
:10B0D000002303721368C0F80A305368C0F80E30BA
:10B0E00010310A30FFF7A2FF134B6872DB89002B87
:10B0F000C0D129463046BDE87040FFF773BF808855
:10B10000FFF728FF04460028B4D04068FCF765F933
:10B1100008B1FFF729FF4FF6FF732380AAE786885F
:10B120003046FFF717FF05460028A3D008310A3044
:10B13000FFF77CFF6872DCE7B82F0020E82F0020C3
:10B14000F8B5064648B305460FCD154F3C460FC42B
:10B1500095E8070084E807003068124C3C60B0B105
:10B16000FFF7F3FEC0B93268136823605368636069
:10B170000D480E4A4FF6FF7303800D4B40F8043F15
:10B180000021FCF707F9002818BF032004E020463F
:10B19000FFF7DDFE0028EBD0F8BD0E20FCE700BF76
:10B1A000B82F0020E82F0020D42F002079AF020014
:10B1B000F02F00200AB1FCF7E9BBFCF7F0BB73B538
:10B1C0000191019C06466CB100252C46294601A838
:10B1D000FCF7EFFB18B106EB440301349D80013509
:10B1E000142DF3D13046346002B070BD2DE9F04724
:10B1F00003888488103B8CB005460A2B1FD8DFE8F3
:10B2000003F0063F1E1E1E1E1E1E1E604400314E11
:10B21000B368DB43009371686846FCF7F6FB00995E
:10B2200001A8FFF7CCFF0DF108094FF00008019BC2
:10B23000984507D3132C13D90420FBF75DFF0CB0FE
:10B24000BDE8F08739F802AB00270137514606EB1D
:10B250008700FCF7A4FB1E2FF7D108F10108E6E7F1
:10B260001D482146FCF792FB1C482146FCF78EFB4B
:10B27000EB7B022BE3D11A482146FCF787FBDEE784
:10B2800015482146FCF78BFBD9E7027A15483F2A7F
:10B290004FEA1215214694BF00220122FFF78AFFD0
:10B2A000022D94BF002201220F482146FFF782FFA2
:10B2B000012D0E4894BF002201222146FFF77AFF9C
:10B2C000BDE7037A002BBAD1427A0648C2F3C00226
:10B2D0002146F3E710300020183000201430002001
:10B2E0001C30002028300020243000202030002096
:10B2F000AADF7047002301380B70042806D8DFE866
:10B3000000F00306080A0C0011230B70704721237C
:10B31000FBE73123F9E71223F7E72223F5E700786B
:10B3200000F001007047F0B58B7891B0012B0C460E
:10B3300038BF01238DF80E3005460B88ADF80C3070
:10B34000002116466846032200F0CDFD607C694668
:10B35000FFF7D0FFA07C0DF10101FFF7CBFFE27BEF
:10B36000237B217D43EAC203227C43EA02139DF83A
:10B370000220002922F0190203F0190314BF022150
:10B380000121134361F342031C22002109A88DF817
:10B39000023000F0A8FD637B13F0300F15D002AF30
:10B3A00003220021384600F09EFDE07C0DF10901EA
:10B3B000FFF7A0FF11238DF808309DF80A300E9793
:10B3C000012262F342038DF80A30637B8DF824304A
:10B3D0001422A37B8DF82530002104A800F083FD02
:10B3E00003AB0493A388ADF81C30A368CDF814D048
:10B3F0001BB1E288ADF818200893A369002B31D067
:10B4000001AF03220021384600F06DFDA3691A88C0
:10B41000ADF82C205A88ADF82E205A680D97187B6D
:10B420000A923946FFF766FFA3690DF10501587BC3
:10B43000FFF760FFA269917A137A43EAC103D17AD8
:10B44000927B43EA01139DF80610002A03F01903CA
:10B4500021F0190114BF022201220B4362F34203BF
:10B460008DF80630E36903B10C93334604AA09A9A9
:10B470002846FFF73DFF11B0F0BD90DF7047A5DF14
:10B480007047B5DF704700007FB50023ADF80810A6
:10B49000ADF80A106A4602A9064603930093ADF878
:10B4A0000430FFF7EAFF054600B3124B124CE41AD2
:10B4B000E408FCF74DFE240444F0010403460F4960
:10B4C00032462046FBF70FFBBDF80020BDF80230E6
:10B4D00052EA030103D00A492046FBF704FBBDF8FA
:10B4E00004201AB107492046FBF7F4FA284604B0B5
:10B4F00070BD00BF88C60200E0C6020014D1020081
:10B500005ED102009DD1020078B14FF017130360A5
:10B510001B2303711723C380038141F61B320023D1
:10B52000016143818281184670470E2070470000F8
:10B5300013B5034680880C46B8B91A88242A00F04F
:10B54000958014D8112A71D0232A00F09D80102AEA
:10B550003BD0A37A4BB1E1880020FFF790FF002891
:10B5600040F098804FF48073638102B010BD3A2A96
:10B5700064D0552AEDD1DB88C988A072172B38BF5B
:10B5800017238B4228BF0B462381FFF77AFF60B158
:10B59000FCF7DEFD484B4949024649481B1ADB08C7
:10B5A0001B0443F00100FBF795FAE37A002BD0D19E
:10B5B0002369002BCDD040F6772200922289ADF886
:10B5C0000420694620469847C3E7DB7B0A790A7363
:10B5D000012B13D0022B14D0E18823898B4205D292
:10B5E0000020FFF74CFF70B90123E372217B637BDE
:10B5F0008B42AED20020FFF747FFAAE70B88E3801B
:10B60000EAE74B88FBE7112802D10123A372EDE79B
:10B61000FCF79EFD284B2B49024629481B1ADB08E4
:10B620001B0443F00100FBF755FADFE71723CB803B
:10B630000B8141F61B3348818B818AE75B89CA887D
:10B64000934228BF1346172B0A6938BF17230B8173
:10B650004AB1C97A39B140F677210091ADF804308A
:10B660006946204690470023638172E71A7A0B6986
:10B670004A73002B3FF46DAF4DF67A218DF805002B
:10B6800000918DF804209CE7197A237B994228BF0A
:10B690001946B0E711283FF468AFFCF759FD064B97
:10B6A0000849024606481B1ADB081B0443F0010048
:10B6B000FBF710FA59E700BFE0C6020024D20200EF
:10B6C00088C60200F3D10200B0DF704766DF704722
:10B6D00010B5002104464088FFF7F8FF034608B97B
:10B6E000237210BD112801D10123F9E76368BDE879
:10B6F0001040184760B159B10378DE2B0AD00B68AF
:10B700004360DE2303704FF6FF73438000207047D1
:10B710000E2070470820704728B10378DE2B04D133
:10B720004180002070470E20704708207047F0B518
:10B73000054685B00C46F1B1E8B10B78DE2B1AD185
:10B7400082884B889A4204D10B7A13B10846FFF7DE
:10B75000BFFF2B88112B32D0512B0ED0012B0AD1D9
:10B760002B7A012B07D1A9886288914203D12372D9
:10B770002046FFF7ADFF05B0F0BDAE886388B34249
:10B78000F9D1AF79022FF6D1AD7B2B1F022BF2D866
:10B7900000211022684600F0A6FB052D14BF4FF4CF
:10B7A000C0730023694630468DF80070ADF8043050
:10B7B000FFF78AFF0028DED063689847DBE76388DD
:10B7C000AA889A4204BF4FF6FF736380D3E7A8DFCD
:10B7D0007047AEDF704762DF70470288502A10B4AE
:10B7E0000DD1C4884A88944209D1028A012A06D11F
:10B7F0004B6923B1827C5DF8044B808818475DF863
:10B80000044B7047F0B50B6843618FB0344B02AA0C
:10B81000044603F11007164618685968154603C513
:10B820000833BB422A46F7D104F112013046FFF734
:10B83000D2FF002851D1A37C8DF8063022464FF468
:10B84000A05301A90120ADF80430FFF7C0FF002884
:10B8500043D10146202206A800F045FB41F20143F6
:10B86000ADF81830A37C8DF81A304FF00E13079303
:10B870009DF82530224623F01203012543F01203E0
:10B8800032F80A0B8DF8253006A98DF829508DF86D
:10B890002B50FFF748FD00BB0146202206A800F010
:10B8A00022FB41F22553ADF81830A37C8DF81A30F5
:10B8B0004FF0031307939DF825308DF82950224649
:10B8C00023F00A0343F00A0332F8020B8DF8253007
:10B8D00006A98DF82A50FFF726FD0FB0F0BD00BF76
:10B8E00074D202002DE9F04788B00A230DF1040854
:10B8F000DFF85CA0ADF8023006460F46541E002566
:10B90000C14614F8012F294650460135FFF7B8F813
:10B91000237808F8013B0A2DF3D110220DEB020029
:10B92000002100F0E0FA01238DF812307B89ADF898
:10B9300010300023ADF8143004A90DF10203304695
:10B94000CDF81C900693FFF744FF08B0BDE8F087E0
:10B9500060D2020010DF704713B5044609496846FB
:10B96000FCF79BFB019808B902B010BDD0E900219B
:10B970002046904718B16846FCF799FBF2E7112082
:10B98000F2E700BF90D2020013B5044607496846AB
:10B99000FCF783FB019B0BB902B010BD2046D3E935
:10B9A000002190476846FCF782FBF3E7A8D202002B
:10B9B0000B4991F816335A09EC231341DB0706D5DE
:10B9C000084B9A683AB94FF480030B60704742F213
:10B9D0000200FBF791BB1A6842F480021A607047BC
:10B9E00000E100E0642A0020F7B5194F3C7864BB01
:10B9F000184E012520463570FFF7AEFF112821D0E3
:10BA00002046FFF7C1FF144B8DF8034018680190E2
:10BA10000DF10300FBF7BAFD104901A8FFF79AFFEB
:10BA20000446B0FA80F0400938709DF80300FBF737
:10BA3000D1FD3CB90A4B34701C70FFF7B9FF2846A2
:10BA4000FFF7A2FF204603B0F0BD0824FAE700BFCD
:10BA50008D3000208C3000208CD202006D710200ED
:10BA60008E300020014B1878704700BF8D300020C9
:10BA700007B508496846FCF710FB019B13B903B0F2
:10BA80005DF804FBD3E9002090476846FCF70FFB04
:10BA9000F3E700BF9CD20200FFF7EABF60DF704708
:10BAA00069DF704761DF704730B5114B1B7891B08B
:10BAB000E3B1104D34240DF1020103A8ADF80240AA
:10BAC000FFF7F0FF70B9294601A8FCF7E6FA029BE0
:10BAD000002BF0D003A8D3E90021904701A8FCF780
