:020000022000DC
:1060000000000120756302005D6302005F6302000F
:106010006163020063630200656302000000000028
:1060200000000000000000000000000067630200A4
:1060300069630200000000006B6302006D630200F0
:10604000E99C02006F630200F5A002006F6302008A
:1060500065AD02006F630200A59F02006F6302003E
:106060006F6302006F6302006F6302006F630200E0
:106070006F6302006F6302006F6302006F630200D0
:106080006F630200097B02006F6302006F6302000E
:106090006F6302006F630200AD0F03006F630200C5
:1060A0006F6302006F6302006F6302006F630200A0
:1060B0006F6302006F630200000000000000000038
:1060C0006F6302006F6302006F6302006F63020080
:1060D00059B202006F6302006F630200000000000B
:1060E00000000000000000000000000000000000B0
:1060F00000000000000000000000000000000000A0
:10610000000000000000000000000000000000008F
:10611000000000000000000000000000000000007F
:10612000000000000000000000000000000000006F
:10613000000000000000000000000000000000005F
:10614000000000000000000000000000000000004F
:10615000000000000000000000000000000000003F
:10616000000000000000000000000000000000002F
:10617000000000000000000000000000000000001F
:10618000000000000000000000000000000000000F
:1061900000000000000000000000000000000000FF
:1061A00000000000000000000000000000000000EF
:1061B00000000000000000000000000000000000DF
:1061C00000000000000000000000000000000000CF
:1061D00000000000000000000000000000000000BF
:1061E00000000000000000000000000000000000AF
:1061F000000000000000000000000000000000009F
:10620000354936480A1A02D0072291438D4634494F
:1062100034480A1A06D00722914381F309880222E2
:1062200082F3148830483149314A00F044F831484B
:106230003149324A00F03FF831483249324A00F0E1
:106240003AF832483249334A00F035F83248334997
:10625000334A00F030F833483349344A00F02BF821
:1062600033483449344A00F026F83448344900228F
:1062700000F02CF833483449002200F027F8334866
:106280003349091A082902DB002202604160314AC1
:1062900090471F481F49884205D00268043003B464
:1062A000904703BCF7E700208646EC46002000211B
:1062B000294A9047FEE7884207D0521A05D0037852
:1062C00001300B700131013AF9D17047884202D098
:1062D00002700130FAE770470000012000E0002062
:1062E0000000012000000120584703008422002004
:1062F0000C230020D0630200D0630200C41C030002
:10630000584703008422002084220020781E0300C6
:10631000781E0300781E0300781E0300781E030019
:10632000781E0300781E0300781E03005747030001
:10633000E04703000C2300200C2300200C23002046
:10634000003A0020003A0020003A0020003A0020E5
:10635000005A00209D630200C1B80200FEE7FEE77C
:10636000FEE7FEE7FEE7FEE7FEE7FEE7FEE7FEE705
:1063700000F002B8FFF7FCBF0F484FF00701884359
:1063800085460E4880470E48016841F4700101605F
:10639000BFF34F8FBFF36F8FFFF732BF09480A4932
:1063A0000A4A884207D0521A05D0037801300B7090
:1063B0000131013AF9D1704700000120016F02005C
:1063C00088ED00E0641E030070220020842200207B
:1063D0007047000007B5044B0093044A402300F0C7
:1063E00032F803B05DF804FBF16302000D230020D6
:1063F0002DE9F84388461446B2B10F4B0F4E0325E2
:10640000002743F00109224608EB0701002006F0AF
:106410009DF80744241A48B933782BB14FF47A40D9
:10642000C847013D02D13570BDE8F88301233370C0
:10643000002CE8D1F8E700BF801E03000C230020E9
:10644000704706F0D7B8F0B595B01D461646084619
:106450000C4603F0AFF91A9B0D93CDE908650025B2
:106460002B46082205A920460A958DF82C500C953C
:1064700003F0BDF9079B0293069B03939DF814302C
:106480008DF8115003F00302012A1DD1BDF814202C
:10649000059DC3F3C203C2F383168DF81030B2001A
:1064A00008230EA9204603F0A2F9C5F3952508ABF1
:1064B0000093324602AB0EA9284600F0CFFB2046DF
:1064C00003F07CF915B0F0BD022AF8D1BDF81650E2
:1064D000C3F3C203C5F389158DF810300827082DC2
:1064E0002E4628BF08263B4632460EA9204603F01A
:1064F0007EF9AD1B08AB02AA31460EA8374400F066
:1065000011FC002DEBD1DAE7014B01221A70704724
:106510008E2300207047000070B5124D06460FCD47
:1065200088B06C460FC495E80F00002E84E80F0079
:106530004FF0FF334FF00602CDE90023CDE90233DF
:10654000094A0A484FF0EB7308BF002269460693D8
:1065500003F050FB08B100F079FF054B1E7008B046
:1065600070BD00BF941E0300096502008422002054
:106570004D23002007B5044B0093044A4023FFF746
:1065800062FF03B05DF804FB916502004E2300201A
:1065900038B50D4B0D4D002018700D4804782D5D59
:1065A000D2B21C4665B1043004F012FA08B100F012
:1065B0004DFF084B1A7812B12378002BFBD038BD61
:1065C0000C3003F0C7FFF1E78E230020242C0020BD
:1065D000842200204D23002008B50848084A03788B
:1065E000D35C3BB1043004F063F9BDE808400020FF
:1065F000FFF792BF0C3003F043FFF6E78422002040
:10660000242C00200120FFF787BF000038B50A4D79
:10661000FFF717FF0421284600F08AFA074B0124F0
:106620005C71FFF7EFFF042105F1100000F080FA24
:10663000034B5C7138BD00BF301E03009822002060
:10664000A0220020037813F0040216D003F0030305
:10665000012B03D0022B09D0012070470A68008863
:106660000232C0F3831002440A60F5E70B684288E7
:10667000023303EB92130B60EEE710467047000005
:106680002DE9F04F87B000230446861C0DF107006A
:106690000F4615468DF8073001F0C8F8404A51689A
:1066A0003960936803F580735B1A924602F21C47C7
:1066B00002F5836902F21448B3421AD30020002D78
:1066C00069D004F00F039B0143F0050363F30F004F
:1066D000DAF80430DAB203321E444AF822009DF898
:1066E0000700CAF8046001F0C5F8012007B0BDE852
:1066F000F08F0121384602F0D1FA484602F0E9FA5B
:10670000404602F0E6FADAF808000290C0B2033020
:106710000AEB800002A9FFF795FF029B30BBDAB2BB
:106720000AEB8202D16803919A1C0133DBB20AEBB7
:1067300083030292D3F80CB001F00303012B22D0A3
:10674000022B15D08346404602F0C6FA10B1029BD8
:10675000CAF808305946384602F0A0FADAF808308C
:10676000DAF8042003F580739B1AA5E7D8B2CEE7C8
:10677000BDF80E30C3F3891303334FEA1B4B02EB12
:1067800093030293DFE7BDF80C30C3F383134FEAA2
:106790001B4B1344F5E7A40544F0060098E700BF3F
:1067A00060240020064B074810B500221A7002F042
:1067B000BAFF044610B9044803F0DCF8204610BDC7
:1067C00060240020501E0300F81E030030B50A4C60
:1067D00071B10A4A0A49121BD20800239A4201D118
:1067E000002030BD31F82350854202D00133F5E757
:1067F000034654F83300F4E7281D0300001E03008D
:1068000070220020094B013903EBC000032909D88D
:10681000DFE801F00A02040604207047007970479F
:10682000407970470020704702207047281D030000
:10683000034BD3E90130C31A58425841704700BF97
:10684000602400202DE9F04186B0FFF7F1FF0546F6
:10685000002840F0E680744CC4F81804BFF34F8F52
:10686000A3680293DBB2033304EB830002A9FFF7B2
:10687000E9FE029B18B1D4F81824002A55D0DAB2E8
:10688000991C013304EB8202DBB204EB8303D26870
:10689000DB68049302F00303022B039202914FD1B1
:1068A000BDF80E306148C3F38917502F3E4628BF0C
:1068B000502666F38F1306F10801ADF80E3002F092
:1068C0004AFF0546002800F0978002F073FF00237E
:1068D00003A90822284602F080FF0299CB43DBB2CD
:1068E0000133C9B20331B6EB830F4FEA830804EBDF
:1068F000810122D908234246A6EB0806284602F069
:106900006CFFF6B24A4908F108033246284602F005
:1069100064FF029B033703EB97070297D4F8183400
:10692000002B41D1D4F8106451E062689A4299D8A2
:10693000A260284606B0BDE8F08108233246E5E7AC
:10694000012B59D1BDF80C303848C3F38311062907
:1069500028BF062161F3891302318900ADF80C309C
:1069600002F0F9FE0546002846D002F023FF00237E
:10697000082203A9284602F030FF0026BDF80C20AB
:10698000C2F38312B300964203F10803C6D2029900
:106990004A1CC9B20331029204EB81010422284649
:1069A00002F01BFF0136E9E7284602F007FFFFF778
:1069B0003FFF80F00100C5B2BBE7F3685B7923B10C
:1069C000336829461B6830469847F3681E68002ED6
:1069D000F3D1284602F0F2FE0DF107008DF80760B2
:1069E00000F024FFD4F818340BB9029BA3609DF883
:1069F000070000F03FFFDAE7D4F8104454B90D4B1C
:106A00000D480E49C01AC008000440F0020000F012
:106A10005DF8CCE7236820469B689847E3681C68CC
:106A2000ECE7002585E700BF60240020501E03002E
:106A30006C240020281D0300601D0300E11E0300DC
:106A40002DE9F34704460E46924601A90122184655
:106A50009946FFF715FE1B4F10B3019D4FF000083C
:106A6000AA1CC84508EB020123D11748002102F0F7
:106A7000CEF880F31000000440EA1440E4006B1CE0
:106A800004F03804DBB2EDB244F0010407EB8303F9
:106A9000033544EA881444EA8624D86047F8254040
:106AA0003B781BB1FFF7CEFE0028FBD102B0BDE85A
:106AB000F087C9B207EB81015AF82830CB6008F1A2
:106AC0000108CEE7602400207C28002000231A461D
:106AD000FFF7B6BF07B50123019201AAFFF7B0FF88
:106AE00003B05DF804FB07B5CDE9002302236A4635
:106AF000FFF7A6FF03B05DF804FB1FB5CDE9012346
:106B0000069B039301AA0323FFF79AFF05B05DF8E4
:106B100004FB1FB5CDE90023069B0293079B03935B
:106B20006A460423FFF78CFF05B05DF804FB000004
:106B300030B50F49D1F8102403460020144634B96B
:106B4000DC6820714AB9C1F81034226030BDE468B5
:106B50002579854206D02468F1E7D2681168216062
:106B60001360F3E701300A28E8D14FF0FF30EDE77A
:106B700060240020084A38B50123D2F8104413706D
:106B80001D4604B938BDE3685D71236820465B6823
:106B90009847E3681C68F4E76024002007B50346C3
:106BA0000846197A052911D05B7A2BB1094A0A499E
:106BB000019002F0F4F801980849019002F0EFF812
:106BC000019803B05DF804EB02F0DEB8002AF8D0BB
:106BD000F2E700BF041F030067390300261F03000C
:106BE00030B5C38885B004460D4633B1144A0092CF
:106BF0001449154A284602F0D2F8217A05291DD0F9
:106C0000637A4BB1A088FFF7FDFD104B104953F894
:106C10002020284602F0C3F8227A0E4BA08853F8B1
:106C2000222003920021FFF7D1FD039A0A4903466F
:106C3000284605B0BDE8304002F0B1B805B030BD1F
:106C4000041F0300111F0300091F0300901F03000E
:106C500067390300B41F0300291F03002DE9F04327
:106C600085B01F460C9D002395F80C902B730646AB
:106C70000C46904629463846FFF7B2FFB8F1060F9A
:106C800009D8DFE808F00412181F28334000314605
:106C9000284602F084F8002229463846FFF77EFF96
:106CA00085F80C9005B0BDE8F0832268314628468F
:106CB00002F075F8EFE7D4E900233146284602F0E8
:106CC0006EF8E8E7A36800933146D4E9002328462C
:106CD00002F065F8DFE7E3680193A36800933146AB
:106CE000D4E90023284602F05AF8D4E72369029336
:106CF000E3680193A36800933146D4E90023284652
:106D000002F04DF8C7E76369039323690293E368D0
:106D10000193A36800933146D4E90023284602F08A
:106D20003EF8B8E708292DE9F74F80460E4617468A
:106D30001C463CD8002593F80C901D73194610464C
:106D4000FFF74EFFDFF888A0DFF888B0AE4231D9F8
:106D500018F805205946204602F021F80135082D83
:106D6000F4D11949194DDFF870A0204602F017F848
:106D70004FF0000B5E4522D918F80B207E2A05D86B
:106D8000104601920AF07EFB019A00B92E2251466C
:106D9000204602F004F80BF1010BBBF1080FE9D11A
:106DA000012221463846FFF7F9FE84F80C9003B023
:106DB000BDE8F08F5146204601F0F1FFCEE72946AD
:106DC000204601F0ECFFE6E73D1F03003B1F0300F8
:106DD000391F0300331F03003F1F0300054A4FF014
:106DE000A043105CD3F8043523FA00F000F0010052
:106DF000704700BFCC1F0300044B1A5C0123934073
:106E00004FF0A042C2F80835704700BFCC1F030006
:106E1000044B1A5C012393404FF0A042C2F80C359A
:106E2000704700BFCC1F030008B50020FFF7F0FF3C
:106E30000120FFF7EDFF0220FFF7EAFFBDE8084061
:106E40000320FFF7E5BF08B50020FFF7D5FF0120BD
:106E5000FFF7D2FF0220FFF7CFFFBDE80840032075
:106E6000FFF7CABF074A4FF0A041105CD1F80435C4
:106E70000122824022EA03001340C1F80805C1F84C
:106E80000C357047CC1F0300014B185C704700BFE6
:106E9000C81F03000B4B1B685A1C05BF0A4B0B4A4B
:106EA0000B4A10680ABF1B781068C0F30310062B4A
:106EB00005D1033803288CBF002001207047002033
:106EC000704700BF30010010E00F00F0E80F00F045
:106ED00034010010074B1B78062B09D1064B1B68A9
:106EE000C3F30313033B032B02D8044AD05C70475F
:106EF00000207047E00F00F0E80F00F0D81F0300FB
:106F000008B5FFF7C7FF28B1834B844A1B68C3F35A
:106F100004231360FFF7DEFF10B1814B814A1A6032
:106F2000FFF7B8FF28B1804B804A1B68C3F3423398
:106F30001360FFF7CFFF20B17D4AD36823F0807341
:106F4000D360FFF7A7FF40B14FF080430022C3F8A2
:106F50000C21C3F81021C3F83825FFF7BBFF10B18F
:106F6000744B03221A60FFF7B5FF40B1724B052244
:106F70001A6001229A6700229A603F225A606F4B82
:106F80001A68511C0BBF6E4B6E4B1A781B6802BF00
:106F900008331B68C3F30313062A4DD1033B032BAD
:106FA0004AD8694AD35C002B46D04FF08052674BD9
:106FB000D2F80414C3F82015D2F80814C3F8241525
:106FC000D2F80C14C3F82815D2F81014C3F82C15F5
:106FD000D2F81414C3F83015D2F81814C3F83415C5
:106FE000D2F81C14C3F84015D2F82014C3F8441585
:106FF000D2F82414C3F84815D2F82814C3F84C1555
:10700000D2F82C14C3F85015D2F83014C3F8541524
:10701000D2F83414C3F86015D2F83814C3F86415E4
:10702000D2F83C14C3F86815D2F84014C3F86C15B4
:10703000D2F84424C3F87025FFF72CFF28B1444B45
:10704000444A1B6803F04F031360FFF723FF48B166
:107050004FF08043D3F80024D20744BF6FF0010201
:10706000C3F80024354B1B68062B0CD1354B1B682D
:10707000033B032B07D8384AD35C23B1374A136844
:1070800043F480631360364AD2F8883043F47003C7
:10709000C2F88830BFF34F8FBFF36F8F4FF01023CC
:1070A000D3F80022002A03DBD3F80432002B2FDAB6
:1070B0002C4B0122C3F80425D3F80024002AFBD06E
:1070C0004FF010221521C2F80012D3F80024002A34
:1070D000FBD04FF010231522C3F80422214B1A468F
:1070E000D3F800140029FBD00021C3F80415D2F80E
:1070F0000034002BFBD0BFF34F8F19491A4BCA68DD
:1071000002F4E0621343CB60BFF34F8F00BFFDE793
:10711000164B174A1A6008BD240300104035014081
:1071200074C007400DF0ADBA440200103C050040A9
:10713000F0ED00E0A00500401056004030010010C6
:10714000E00F00F034010010D01F030000C0004029
:1071500058020010E40E0040D41F03003C1700400A
:1071600000ED00E000E001400400FA05A822002044
:107170000090D003C30710B507D4F023054A400898
:10718000145C23401943115410BD0901C9B20F23E7
:10719000F4E700BF4829002030B5094B1C78094BA3
:1071A000196800239C4202DC0022104630BD11F811
:1071B0003350854201EBC302F7D00133F2E700BF41
:1071C000182900205829002013B504460191FFF723
:1071D000E3FF38B143682BB10199204602B0BDE806
:1071E0001040184702B010BD034B04481968002234
:1071F000490800F02ABA00BF1C29002020290020DD
:1072000010B5C0B2FFF7C8FF0446007802F0C0FE18
:1072100063785A1E53425341834208D1044BD3E949
:107220000023134303D1BDE81040FFF7DDBF10BDBD
:107230004029002037B54308354AD35CC2074CBF0C
:107240001B0903F00F0304460D46042B35D8DFE875
:1072500003F003252C383C0079B30121FFF78AFFA6
:1072600000230DF107008DF8073000F0DFFA012050
:10727000A4F12003C4F12001264A20FA01F100FA0A
:1072800003F30B43A040D2E9004120430B43C2E982
:1072900000039DF8070000F0EDFA0EE0002918BF8A
:1072A00002212046FFF766FF07E041B10321FFF707
:1072B00061FF01212046FFF787FF03B030BD0121A8
:1072C000EFE70029F9D10421EBE709B10321E8E751
:1072D000FFF750FF29462046FFF776FF0DF1070024
:1072E0008DF8075000F0A2FA0120A4F12003C4F1A8
:1072F0002001084A20FA01F100FA03F30B43A040F1
:10730000D2E9004124EA000021EA0303BFE700BFFD
:1073100048290020402900202DE9F041124E134F4A
:1073200000243378A34208DC114BD3E90023134334
:1073300018D0BDE8F041FFF757BF3D6805EBC40822
:1073400015F8340002F024FE98F801305A1E53421A
:107350005341181A4142414115F83400FFF76AFFC2
:107360000134DEE7BDE8F08118290020582900200B
:1073700040290020092AF7B505460C4616463CD997
:1073800002F046FDD8B11E4B1E481D601E4B1F4F1C
:107390001C701F4B002110221E600AF0F3F81D4BD9
:1073A00000200021C3E90001013CE4B20326FF2CC8
:1073B0000BD1194A1948002100F03CF903E002F012
:1073C000E9FC0028DFD003B0F0BD9DF8063015F8C9
:1073D00034008DF8046005EBC40223F007038DF838
:1073E000063001A993788DF805303A4602F01AFD6F
:1073F000013CE4B20028DAD0E5E70720E3E700BF6C
:107400005829002048290020182900200172020074
:107410001C2900204029002019730200E81F0300E6
:1074200070B5084D084E00242B789C4201D30020F3
:1074300070BD3368012113F8340002F065FD01349A
:10744000F2E700BF18290020582900201FB50021AD
:10745000039001AA44F20100CDE9011100F004F803
:1074600005B05DF804FB000010B572B6FFF782FBB3
:10747000FFF7E8F90028FBD1104B114C1149E41A31
:10748000E408240444F00100FFF720FB0E4B1B68C6
:10749000DB0700D500BE0D4944F00200FFF716FBE4
:1074A000BFF34F8F0A490B4BCA6802F4E0621343E3
:1074B000CB60BFF34F8F00BFFDE700BF281D030067
:1074C000601D0300EC1F0300F0ED00E0F81F030057
:1074D00000ED00E00400FA05D0E90223D1E9020141
:1074E000994208BF90422CBF012000207047000045
:1074F00008B50B4800F0F1FA0A4B0B49D3E9002319
:107500001218D1E9000143F100038B4208BF824207
:1075100003D212F1807243F100031046194608BDF0
:10752000AC22002060290020D829002037B505466C
:107530000C460A4801A901F09EFA60B1057044604A
:1075400001A9064801F0C1FA18B1054800F0CAFACD
:10755000002003B030BD0420FBE700BFC429002099
:10756000AC22002038B5184B1B78044613B900250F
:10757000284638BD0028FAD0037F03F0FF05002B12
:10758000F5D0FFF7B5FFD4E90223994208BF904236
:1075900014D3236903B92377D4E9053098472169C7
:1075A0000029E4D0237F03F0FF05002BDFD0D4E9CE
:1075B0000223521843F10003C4E902230348214681
:1075C00002F0F7F9D4E700BF682900201420030077
:1075D00013B5114B1149186801900823104858221F
:1075E00001F014FA044698B90E4A0F4801A900F0B8
:1075F00065F9044660B90C48012100F051FA0123F5
:107600000A4A0948194600F0B3F9094B01221A70D9
:10761000204602B010BD00BF102003006C290020DE
:10762000C429002095760200AC220020FFFF7F00D5
:10763000682900203AB103685A614A1E51425141FB
:107640001961002070470720704738B5037F044652
:107650000D4683B98261FFF74BFF2369401941F161
:107660000001C4E9020103B1256121460020BDE803
:107670003840FFF75BBF002038BD00230146037789
:107680000120FFF753BF0000014800F026BA00BFF9
:10769000AC2200202DE9F04F85B0804600F008FABA
:1076A00040B15A4AD2E9003113F1807341F100012F
:1076B000C2E900310021404600F009FA38B1544EC9
:1076C000336823B13068FFF74DFF00233360012199
:1076D000404600F0FCF920B1FFF70AFF4D4BC3E92B
:1076E00000014D484A4F4D4EDFF8389103A901F093
:1076F000FCF9002845D1DFF82491454EDFF828A198
:10770000484602F06CF93368002875D07BB13368C5
:10771000D0E90201D3E90223994208BF90422DD259
:1077200033681B7F1BB13168484602F042F9484676
:1077300002F04FF9D0E902B307460193FFF7D8FEF4
:10774000019BBBEB000463EB0105012C75F1000309
:1077500045DBB4F5350F40D3FFF796FF304A0244BE
:107760004FF496030021504600F022F900283ED144
:10777000336813B9404600F0F3F8376005B0BDE850
:10778000F08F0378012B1DD0022B09D14FF0000A96
:10779000304602F01EF9002834D080F81CA0F7E72C
:1077A0003BB941680B7F23B901230B77304602F0C8
:1077B00000F903A9184801F0C3F903A9164801F01C
:1077C00094F996E741683B68994202D100233B60F7
:1077D000EFE7304602F006F9EBE7BA68C0E70021B0
:1077E000504600F06AF93846FFF7BCFE01E00D286C
:1077F000F9D00023336083E7002BBFD1404600F06F
:10780000B3F8BBE7012389F80030D2E760290020F4
:10781000E0290020D8290020C429002014200300DA
:10782000FFFFB40068290020AC22002070B5EFF300
:10783000108672B60C4A946801239CB993600B4B76
:107840000B4DD3F8801029401160C3F88050D3F855
:10785000841051604FF0FF32C3F88420047006B9E1
:1078600062B670BD0370FAE7E429002000E100E091
:10787000FC06FFBD084B9A6810B55AB150B9EFF33A
:10788000108172B6054A1C6814605C685460986088
:1078900001B962B610BD00BFE429002000E100E09C
:1078A000435882B03BB10023435043580193019B9E
:1078B000012002B070471846FBE70000F8B5204BE6
:1078C0004479204D43F824201F4A204B05EBC40483
:1078D0009B1A2279DB081B0432B143F002001C49D9
:1078E000FFF7F4F80820F8BD02680C88C2F80845D4
:1078F00090F904608A7804795201002ED2B219DB23
:1079000014498F1987F800230122760904F01F0417
:1079100002FA04F441F82640427905EBC201012441
:1079200045F832000C7143F003000B49FFF7CEF825
:107930000020D8E7094904F00F040A55ECE700BF1E
:10794000F8290020F0290020281D0300701D0300E5
:107950002020030000E100E04220030014ED00E0DD
:10796000036801221A607047036801225A60704759
:1079700073B501F15005AD000068ADB24FF480342D
:107980008C400026C0F80843C0F84843465101F532
:10799000A8714559019522F07F42019D40F82120B0
:1079A000C0F844430BB1C0F8044302B070BD0000FE
:1079B0002DE9F74F0D4622F07F4402684FF48037DF
:1079C00005F150068F408046B60002EB8500C2F8F4
:1079D0004873B6B2C2F80873D2F8041599464FF04E
:1079E000000BD0F84035C0F8401542F806B05B1ADD
:1079F0009259009223F07F43012B009A4FEA850AA7
:107A00000CD1264B4FF4806043F001039847D8F81F
:107A1000003043F806B09B590193019BD8F8001041
:107A2000D1F80465C1F84473A31B23F07F43012BF5
:107A30001CD11A4B05F5A875013443F0010341F838
:107A400025404FF480609847D8F80030D3F80435CB
:107A50009E4209D1D8F800300020C3F84473C3F81F
:107A6000047303B0BDE8F08F0D20FAE78A44C9F132
:107A7000FF13CAF84045D1F80405221A013A22F052
:107A80007F4203F57F439342EED3002AE2D10134D3
:107A9000CAF84045D1F804359842DAE7602003007F
:107AA00003680222C3F8442309B1C3F804237047D2
:107AB00000684FF48271FFF7F3BE4FF4803303FA8E
:107AC00001F10368C3F84813C3F808137047503135
:107AD0008900006889B2FFF7E3BE0368D3F80405A4
:107AE0007047000090F90430002B09DB5A0901218E
:107AF00003F01F0301FA03F34032024941F8223038
:107B0000704700BF00E100E0024B034A1B681068A9
:107B1000184700BFF8290020F029002070B5064D55
:107B20000646002455F8043B0BB130469847013413
:107B3000042CF7D170BD00BF082A0020033080B2AA
:107B400040F2FE33984230B51FD8134B1A783AB939
:107B50001C895D892C440444A4B2B4F5806F0AD911
:107B60001A7DAAB99A8BDC8B2244024492B2B2F5F8
:107B7000806F0DD801220A801446142202FB0433C0
:107B80005A8910445881002030BD48F20860FBE754
:107B900048F20660F8E700BF3C2A00200B4A0C4B75
:107BA0005188142000FB0131CB6833B904204968A7
:107BB00010700122074801F07FBB074905231370AD
:107BC00002238B80012209680023F3E7202A00208A
:107BD0003C2A002070220020042B002007B500233F
:107BE00005490093054A09680548082301F0CEFAC3
:107BF00003B05DF804FB00BF042B002074200300D9
:107C00007022002007B5002301460093034A044870
:107C1000082301F0BBFA03B05DF804FB6C200300FD
:107C20007022002013B500230C4600930146084A39
:107C30000848042301F0AAFA38B90749142303FBC2
:107C400004140123237402B010BD48F20D60FAE75A
:107C500068200300702200203C2A002037B50A4823
:107C60000A4B42689C8819685388032503330570C2
:107C70009BB2002000909B0001EB8401044801F0BE
:107C800085FA03B030BD00BF202A0020042B00205D
:107C90007022002010B50146044800F0ECFE1C22C2
:107CA0000446002109F06EFC204610BDF02A002099
:107CB00068B10268084B9A4209D14068074B984264
:107CC00007D00133984214BF0320012070470320DE
:107CD00070470020704700BFDEC0ADDEFE011EF120
:107CE0004388033300EB830399420BD382884FF61A
:107CF000FF739A4208D0038833B18068431C58420E
:107D00005841704702207047012070472DE9F0412B
:107D10000D460223154F2B80164600F5805100F1C9
:107D200008044FF001088C420ED2236801330BD0B7
:107D30002046FFF7D5FF48B10EB186F80080022833
:107D400009D14FF480632B80BDE8F081A3683A68C5
:107D5000934200D93B602B886288033313442B8005
:107D60006388033304EB8304DDE700BF342A00207B
:107D700038B5144B14220D4602FB00302B684468C2
:107D800004F58051A3B15C88033403EB84048C4276
:107D900015D22368013312D02046FFF7A1FF012836
:107DA00008D002280BD00028F1D12C60012038BD6A
:107DB0000834ECE76388033304EB8304E7E700202F
:107DC000F5E700BF3C2A0020426873B504460D4623
:107DD0006AB3244BD9688A4229D31B699A4226D8B0
:107DE00012F0030323D120490089098988421ED15A
:107DF0002068916888421AD11C494868824203D998
:107E000000F5805082420DD389698A420CD901F570
:107E100080518A4208D201222A80B3FA83F04009B5
:107E200002B070BD1A46F7E748F20963F5E7002390
:107E30002B801E460196288801A9FFF799FF30B9CB
:107E40002B8801339BB2012B2B80F3D9E8E7019BF0
:107E5000226899689142EED16360034B1B892381AC
:107E6000DEE700BF70220020202A00203C2A0020EC
:107E70002DE9F8431C461D4B1B7806460F46154658
:107E800073B382B37CB3DFF86C804FF01409A3881E
:107E9000012B02D948F2096020E009FB03F318F82E
:107EA00003302BB9A0882146FFF762FF20B920607C
:107EB000A3880133A380EAE723681EB1998832883A
:107EC0009142EFD11FB119883A889142EAD19A685C
:107ED000C5E90023064B1B892B810020BDE8F883F0
:107EE00048F20160FAE748F20460F7E7182A002038
:107EF000202A00203C2A002008B5074B5888191D6D
:107F0000FFF736FF18B1BDE80840FFF7A7BEBDE890
:107F10000840FFF743BE00BF202A00202DE9F04FA4
:107F2000A44FDFF8B49289B00646B8463B6823B93F
:107F3000A148494600F0D9FD3860D8F800502978AA
:107F40004B1E052B07D8DFE813F022007C007C00D5
:107F50000E010E01660148F20E641422002103A8EE
:107F600009F010FB41F61D539C4208BF0024D8F8CD
:107F7000003004941A78013A052A00F2F881DFE80B
:107F800012F0E401E8010802180224022E022EB1C8
:107F90008A4B00225A604FF40644DEE72B79032B0C
:107FA0001DD8DFE803F015022B3685490B78022B2C
:107FB00008461AD00B7D022B4FF0010317D1142273
:107FC0005343C2180020C8545068FFF71BFE03E05B
:107FD00001232B71FFF702FE002800F0BE80774BD3
:107FE00000225A6048F20D64B7E70023E7E7734ABE
:107FF00013700023536041F61D54AEE77149724877
:10800000002302222B718A800968012201F054F9B1
:10801000E2E76C4C00262E712068694DFFF7F2FDF7
:108020006A4BD4F800C05A8814235343EA18EE541C
:1080300051682160A188C2F804C011810222A28087
:10804000CAE7B5F814A0AA7DDFF874B1AEB1022A70
:10805000EB8806D9142101FB0AB1DA1C0889024415
:108060000A81142202FB0ABAC3F57F43BAF80A2038
:10807000FD331344AAF80A308DE7142303FB0AB337
:1080800018895C6804EB8004062A69D8DFE802F0EE
:10809000274E36441D5A040041F61D54AA7DEB8834
:1080A000022A06D9142101FB0AB1DA1C088902440C
:1080B0000A81142202FB0ABAC3F57F43BAF80A20E8
:1080C000FD331344AAF80A3047E7414841490023E9
:1080D0004360AB690360FFF777FE00285BD00223A3
:1080E000AB75002300930423EA182146364801F0BB
:1080F0004DF8002831D048F20D64CFE72B69002BF2
:1081000014BF03230123AB750023009305F10C0278
:10811000042304F10801E9E70123AB750022EB8891
:1081200000922A699B0004F10C01DFE703290CBFD0
:1081300005230623AB7500230093042305F10802F1
:10814000E118D3E70623AB75224B1988204B5868FA
:10815000FFF768FD04460028A0D109B0BDE8F08F04
:1081600048F20E649AE7002E7FF415AF2B79012BAD
:1081700034D0022B3FF43FAF002B7FF4ECAE022350
:108180002B710DF10A01EB68039303A8CDE9046696
:10819000FFF71AFE10B948F20964DEE60498BDF84C
:1081A0000A108388EB8003882B81FFF73BFD044690
:1081B00027E000BF382A0020F02A0020182A0020DB
:1081C0003C2A0020042B002070220020202A0020BE
:1081D000FC290020102B0020302A0020814B03AA0C
:1081E0003146A81DFFF744FE7E4B044668B99988C6
:1081F0000498FFF717FD044648F209639C423FF4D8
:10820000FAAE002C7FF4A9AEA7E708223146184643
:1082100009F0B8F9F0E7002E7FF4BDAE724B1A7B7F
:10822000B2B11E731A78013A062A3FF694AE01A144
:1082300051F822F0DF82020005830200238302004E
:1082400029830200577F02002F830200418302002E
:108250001A78072AE6D801A151F822F07D8202009F
:108260002582020025820200A3820200B78202005A
:10827000DB820200DB8202009F8202001A895B49D6
:1082800001321A8100225A801A730A78B2FA82F2F5
:1082900052099A720A7DB2FA82F25209DA72012206
:1082A00007E0534958688A884088033202448A802C
:1082B00002221A70B6E74D4C5A884D49142505FB29
:1082C00002420868546850608888108102200C605F
:1082D0008880002111740622EBE70722E9E79A7AE9
:1082E00032B9DA7A8AB900221A705A805A6082E664
:1082F0003E4900229A72CA68002AF2D1097C0029FC
:10830000EFD05A80FFF7F8FD51E70022DA72374AC2
:10831000116A0029E7D192F82420002AE3D0012233
:10832000EFE7FFF79BFC42E7FFF738FC3FE72F4AF8
:108330005B88142101FB03235868FFF763FC36E7D1
:1083400000225A60FFF74AFC31E700238DF80C3019
:108350000DE001228DF80C201A89ADF818209A88BA
:10836000DB680593ADF81A2000238DF81C3003A8B4
:10837000FFF7D4FB002649461E48C8F8006000F00D
:10838000DFFB1D48012100F095FC00287FF4CEADF5
:10839000E3E602228DF80C201A89ADF818209A889D
:1083A000ADF81A20DA689B7D05929A1F534253411B
:1083B000DBE703228DF80C20DA88ADF818201A8943
:1083C000DB68ADF81A200593D1E704228DF80C2064
:1083D000DB88ADF818300023ADF81A30F3E7052339
:1083E000B4E700BF142B0020202A00203C2A0020E4
:1083F000042B0020F02A0020002B00204068FFF70B
:108400008DBD000008B50548012100F03BFC18B9FE
:10841000BDE80840FFF782BD08BD00BF002B00206B
:108420002DE9F3419846374B1B7806460D46002B45
:108430005CD000295DD009884FF6FF7399425BD06C
:108440006B88002B58D06B689B0758D14AB92F898D
:108450000DF102013846FFF771FB30B102B0BDE803
:10846000F08113885788ADF8023001A8FFF712FC9D
:10847000044660B9BDF80230234A142101FB0323EE
:1084800058890338C01B588148F20760E6E780F836
:10849000008000238375BDF8023083826B6803611E
:1084A00001211A4800F0FAFB2B882381B8F1030F51
:1084B0006B88A38004BF0423A3754FF0000508BF99
:1084C0003368E06008BFA3611148E780658101A9B6
:1084D00000F0FBFA36B1E36833600E4B75601B8920
:1084E000B5723381FFF78EFF0020B7E748F20160D5
:1084F000B4E748F20460B1E748F20360AEE748F23F
:108500000260ABE7182A00203C2A0020342A002011
:10851000F02A0020202A002008B5034607480268F8
:10852000042A08D00168064A42F82130012100F0EF
:10853000B5FB002008BD48F20B60FBE70C2B0020C8
:10854000082A00202DE9F04F89B01422002103A849
:1085500009F018F8794A137803F0FF01009190466A
:108560003BB103A8FFF7DAFA0027384609B0BDE8A7
:10857000F08F101D00F0AAFB0028F5D140F6F8732B
:108580004FF080521B685C1C08BF6D4B6D4C08BFE0
:108590001B6811695269581C08BF02FB01F3236173
:1085A0006949A3F5405300222046E36000F0BCFD7A
:1085B000019407460028D8D164496548DFF8A4B182
:1085C0001C238C2200F022FABA463D464FF00309E4
:1085D0003C46019BDE6856443046FFF769FB0128A4
:1085E00062D0032817D000283DD15A494FF0140C0F
:1085F0000CFB04FC01EB0C0201F80C0056600CF1C2
:1086000010020CF1080C0A4430466144FFF77EFB6F
:1086100045F0020545E03268531C02D04E4B9A42A9
:1086200034D1321D06F58051106801302ED104324C
:108630009142F9D1DBF800203AB902220123CBF8AC
:108640000060ABF8042000930BE014226243414B1E
:10865000022099189854414A4E6054800134088190
:10866000A4B245F001050AF5805ABAF5405FB0D1D1
:10867000B9F1010F98BF0025EDB2022D03D0062DF0
:1086800031D0002D39D148F20A676EE73149142202
:108690006243881809F1FF394660032088541FFAA5
:1086A00089F90134A4B2DEE7009B6BB1294B142297
:1086B0006243991802209854DBF800204A60274A48
:1086C000088154800134A4B200222549CBF800600F
:1086D0003046FFF71BFBBBF80420022A0CBF042224
:1086E00008221543BFE7012388F8003003A80023C0
:1086F000C8F80430FFF712FA37E702A8FFF7CAFA02
:10870000C8B10123013D03700A2D09D8DFE805F047
:1087100006080608070807080F110F000023037159
:1087200002A90B4800F0D1F9FFF76CFE1DE7032307
:10873000F5E70223F3E748F2076716E7182A002057
:10874000141000107022002068220300642A002008
:10875000F02A00203C2A0020DEC0ADDE202A0020C6
:10876000082B0020042B002073B50D460446C8B129
:10877000C1B10DF10601FFF727FBB0B10C4BBDF8FD
:1087800006006668142202FB003001210C3000F064
:1087900085FA63682E600C336B600123A37200209E
:1087A00002B070BD48F20460FAE748F20960F7E7EA
:1087B0003C2A002013B50446A8B10DF10601FFF7CD
:1087C00003FB98B10C4ABDF80630142101FB0323CA
:1087D000DA6872B1A27A62B1DA680020013ADA602E
:1087E000A07202B010BD48F20460FAE748F20960D6
:1087F000F7E748F20560F4E73C2A00200223002254
:10880000FFF70EBE18B103230022FFF709BE48F29E
:1088100004607047114B1B7813B50446ABB14FF69B
:10882000FF73984214D001A8FFF734FA98B10523DA
:10883000037001230371C48001A9094800F045F9C0
:10884000FFF7E0FD002002B010BD48F20160FAE73A
:1088500048F20360F7E748F20760F4E7182A0020BF
:10886000F02A00200F4B1B7807B5A3B101A8FFF732
:1088700011FA98B10623037001A90B4800F025F9FD
:108880000A4B1A780AB101221A73FFF7BBFD0020C8
:1088900003B05DF804FB48F20160F9E748F20760B5
:1088A000F6E700BF182A0020F02A0020202A002026
:1088B00007B5ADF80600ADF804100DF1060001A9EA
:1088C000FFF7D6FA03B05DF804FB07B51346ADF821
:1088D00006000A4600200DF10601FFF7C9FA03B0B1
:1088E0005DF804FB07B51346ADF806000A460DF126
:1088F00006000021FFF7BCFA03B05DF804FB20B1CD
:1089000019B103680B600020704748F2046070479B
:108910002DE9F84F3B4B1B780446002B6CD0002808
:108920006DD0DFF8E4A01222002108F02BFE032313
:1089300023804FF0000BD04614274FF00109DAF8DE
:108940000410BAF80A50BAF808600846FFF7B0F900
:10895000032808BF2388628804BF03F1FF33238004
:1089600007FB0B832E44DB681344638023891D447B
:1089700063892581B6B233446381C6F58066A389D5
:10898000B6B2B34201F1080538BFA68101F58051A6
:10899000A94229D92B68013326D02846FFF7A0F930
:1089A00001280AD0022815D00028F1D1A38801336C
:1089B000A3800AE04FF0010BC1E7E3880133E380B5
:1089C000E3896A8803331344E3816B88033305EB3F
:1089D0008305DDE7E38884F810900133E380E389C1
:1089E000491B03EBA101E1810AF1140ABBF1000F5D
:1089F000E0D00020BDE8F88F48F20160FAE748F2C5
:108A00000460F7E7182A00203C2A002010B561B165
:108A1000B2FBF3F403FB1424A4B244B9C0E900147C
:108A200084608281C381204610BD0E20FCE70920AE
:108A3000FAE782B050E8022FC188B2EB324F4FF014
:108A4000000317BF92B241EA014142EA014104E04A
:108A50004268B2EB324F08BF012340E80212002AFD
:108A6000E8D18DF807309DF80730002B0CBF11209E
:108A7000002002B0704737B550E8013F9DB2C4896D
:108A800025448489A54228BF2D1B0489A54202BF25
:108A9000BFF32F8F002207E0C5EA030540E8015429
:108AA000002CE9D14FF001028DF803200193019BC6
:108AB0009DF803200B6002F0FF0322B10B880068D1
:108AC000184403B030BD1846FBE70A884B889A4229
:108AD00009D150E8012FC2EA024240E80123002BED
:108AE000F7D1012070470020704737B550E8023FAA
:108AF0001FFAA3F5C488A54202BFBFF32F8F00223F
:108B00000DE0C48925448489A54228BF2D1BC3EAF2
:108B1000054540E80254002CE8D14FF001028DF8E1
:108B200003200193019B9DF803200B6002F0FF03DB
:108B300022B14B880068184403B030BD1846FBE7EB
:108B40000A884B889A4209D150E8022FC2EA224291
:108B500040E80223002BF7D1012070470020704726
:108B600001F01F024B090121914000EB830000F04E
:108B700065B84B0910B501F01F040121A14000EBBD
:108B8000830000F04FF8E04000F0010010BD01F05C
:108B90001F0301229A404B0900EB8300D14300F0F0
:108BA00065B84B0901F01F0150F82300C84000F0E0
:108BB000010070472DE9F0474F1E7F0980460E46A1
:108BC0000137002558F8254008EB8509E44394FA5D
:108BD000A4F4B4FA84F44FEA451A202C06D10135E6
:108BE000AF42EFD834462046BDE8F0875444A64251
:108BF000F5D921464046FFF7BCFF0028F3D0D9F84D
:108C00000040E44394FAA4F4B4FA84F4E5E710B520
:108C1000034653E8000F0A4643E8002494F0000F8F
:108C2000F7D110BD10B5034653E8000F40EA01022A
:108C300043E8002494F0000FF6D110BD10B50346B0
:108C400053E8002F42EA010043E8000494F0000FCB
:108C5000F6D110BD10B5034653E8000F00EA01023B
:108C600043E8002494F0000FF6D110BD10B5034680
:108C700053E8002F02EA010043E8000494F0000FDB
:108C8000F6D110BD10B5034653E8000F00EB01020A
:108C900043E8002494F0000FF6D110BD10B5034650
:108CA00053E8002F02EB010043E8000494F0000FAA
:108CB000F6D110BD10B5034653E8002FA2EB01001A
:108CC00043E8000494F0000FF6D110BD0121FFF736
:108CD000A9BF0121FFF7B2BF0021FFF7BBBF10B54D
:108CE00090B1D0E9012301689B1ADBB20A60013B15
:108CF000DBB2FF2B026802D10020107110BD116899
:108D00004C1C14600B70F2E70E20F7E737B50546F0
:108D100000240DF107008DF80740FEF787FD2A6853
:108D20006B68116899420ED9481E106011F8014C09
:108D3000EB68298A01FB0434AB6811791B1ADBB29A
:108D4000994238BF13719DF80700FEF793FD204646
:108D500003B030BD37B5054600230DF107000C46C2
:108D60008DF80730FEF762FD2A681368591C116000
:108D7000E968641A298AB4FBF1F41C709DF80700B5
:108D8000FEF778FD03B030BD826810B504462AB105
:108D900043690168006998470023A36010BD0EB4C1
:108DA00003B5039921B104AB01AA019300F06EF859
:108DB00002B05DF804EB03B07047826830B4046819
:108DC000551C8560A154D0E901329A4202D330BCCF
:108DD000FFF7DABF30BC70472DE9F84F9846DDE960
:108DE0000A43154682460F460A464FF00109AA4239
:108DF0000FD2C14538BFC14613F0010B01D16CB988
:108E000000240126B8F1010F1BD908F1FF386E4389
:108E1000F8E709F10109B2FBF5F2E8E79B070ED587
:108E2000B8F1000F0CBF30262026A145E9D2013C45
:108E300031465046FFF7C1FF002CF6D1E0E720266F
:108E4000F3E7B7FBF6F39D42E1D9DFF83C80B7FBCF
:108E5000F6F3504618F8031006FB1377FFF7ADFF43
:108E60003346AB42B6FBF5F6F1D2BBF1000F02D0B0
:108E70000CB1A14501D3BDE8F88F20215046013C3B
:108E8000FFF79BFFF4E700BF7C2003002DE9F74FBD
:108E9000054617468846002900F0428118F8011B54
:108EA00049B92B7B002B00F03B81284603B0BDE87D
:108EB000F04FFFF769BF252940F0B780002698F8EA
:108EC00000302D2B424608F1010823D0302B24D04E
:108ED0002B2B25D000242A2B02F1010123D13B6842
:108EE0001A1D1B683A601C440A4613782E2B26D1A3
:108EF00001324FF0000A104610F8011BA1F1300CAE
:108F0000BCF1090F1DD80A2303FB0A13A3F1300A91
:108F10000246F0E746F00106D1E746F00206CEE74A
:108F200046F00406CBE711F8013CA3F13000092814
:108F3000DBD80A2202FB0434303C0A46CBE74FF070
:108F4000000A12F8011B01F0FB0068289046F8D0D7
:108F5000782909D86F290CD8632962D022D825290D
:108F600063D0582900F0888098F80030002B95D104
:108F700097E770390829F7D801A353F821F000BF0B
:108F8000FB900200698F0200698F02008990020045
:108F9000698F020067900200698F0200698F0200EA
:108FA00079900200642901D06929DDD13A68D2F8AC
:108FB0000090111D89EAE9723960A2EBE9724FF065
:108FC000010B092A35DCD34538BFD3462CB1B9F1A2
:108FD000000F01DB720700D5013CB30702D5BAF1DF
:108FE000000F03D0F00701D44CBB0024B9F1000FEF
:108FF0002DDAC9F100092D212846FFF7DEFE06F023
:109000000302022A04D1BAF1000F01D11CBB0024D3
:10901000CDE9004653460A2249462846FFF7DCFEC2
:10902000A2E73B681A1D19783A602846FFF7C5FE8B
:109030009AE70A230BF1010BB2FBF3F2C1E7A34558
:10904000D4D220212846013CFFF7B7FECCE77107B8
:10905000D5D52B21D0E7A345DAD230212846013CD3
:10906000FFF7ABFED2E73968CDE900460A1D3A604A
:1090700053460A220968D0E739680A1D3A60CDE9EB
:10908000004653461022F5E73B681A1D3A6016F079
:109090000106D3F8009028D1B9F1000F03D048465B
:1090A00008F0C5FA0646B44200D904BB09F1FF39FD
:1090B00019F8011F00293FF457AF2846FFF77DFE3E
:1090C000F6E728460136FFF778FE19F80610002962
:1090D000F7D1A642BFF448AF002C3FF445AF2021A2
:1090E0002846013CFFF769FEF3E70026EDE7202163
:1090F0002846013CFFF761FED5E73B681A1D3A6040
:10910000302128461C68FFF758FE78212846FFF7D3
:1091100054FE00220823CDE90032214610227CE7CC
:1091200003B0BDE8F08F00BF13B50B46114680B900
:10913000104B1148114AC01A0E23C0080093104B5F
:109140000004104940F00100FDF7D7FC0E2002B0EA
:1091500010BD4BB9074B08480B4AC01AC0080E2374
:1091600000930004064BECE703601B6802B0BDE807
:1091700010401847281D0300881D03008C200300A1
:109180002222030091200300C02003002DE9F341B7
:1091900088B93D4B3D483E4AC01AC0080E243D4B9D
:1091A000009400043C4940F00100FDF7A6FC204675
:1091B00002B0BDE8F0814AB9334B3448374AC01A8F
:1091C000C0080E24334B00940004EBE7D0F800E015
:1091D000BEF1000F09D12C4B2C48314AC01AC008EF
:1091E00008242C4B00940004DCE74BB9264B27489D
:1091F0002C4AC01AC0080924264B00940004D1E769
:109200004568D5F80480B3FBF8F508FB15354DB17A
:109210001D4B1E48244AC01AC00809241D4B009447
:109220000004BFE78D0709D0174B18481F4AC01A22
:10923000C0081024174B00940004B3E712F0030F8A
:1092400009D0114B11481A4AC01AC0081024114BFA
:1092500000940004A6E7C568A9420BD34D1EEC1884
:109260000569AC4206D8DEF80C40A44602B0BDE861
:10927000F0416047044B05480E4AC01AC00810244C
:10928000044B009400048DE7281D0300881D030093
:109290008C20030034220300912003000E210300E0
:1092A000BA200300CD200300142103003E21030057
:1092B0005621030079210300F7B580B92A4B2B48CA
:1092C0002B4AC01AC0080E242A4B009400042A49D5
:1092D00040F00100FDF711FC204603B0F0BDD0F8CE
:1092E00000C0BCF1000F09D11F4B2048234AC01A0F
:1092F000C00808241F4B00940004E8E74AB91A4B41
:109300001A481F4AC01AC00809241A4B00940004C6
:10931000DDE74768D7F800E00EF1FF370F4209D0CC
:10932000114B1248174AC01AC0081024114B009460
:109330000004CCE7C768B9420CD304694D1E0EFB8C
:109340000255A54206D8DCF81040A44603B0BDE89B
:10935000F0406047044B05480B4AC01AC00810246F
:10936000044B00940004B2E7281D0300881D03008D
:109370008C2003004722030091200300BA20030041
:10938000CD200300A0210300C621030029DF704780
:1093900028DF704770B503689E6886B004460D46A6
:1093A0006EB114220021684608F0ECF8A36805931A
:1093B000237901952BB1012B0DD06846B04706B03B
:1093C00070BD01238DF8003023690293E368039395
:1093D00063690493F1E702238DF80030E3681B030F
:1093E0000293F5E70846704700207047024B187A51
:1093F000003818BF01207047B82B0020034B187AA3
:109400000122B0FA80F05A7440097047B82B00204E
:1094100008B510461A4608F08CF8002008BD000078
:1094200008B514220021044808F0ACF80348FFF7FF
:1094300000FB002008BD00BFB82B0020A82B002097
:1094400010B5094C094B43602046FFF73FFC40B97B
:1094500007F092FD064920741C2306488C22FFF772
:10946000D5FA002010BD00BFB82B00205C220300FD
:109470001C2B0020A82B002070B5244C244E237AEE
:1094800025463BB923492448FFF72FFB306008B934
:10949000606070BD022334682B72237973B1012B95
:1094A00024D020460321FFF775FF00232B726B6049
:1094B00018491948BDE87040FFF742BBD4E90523BD
:1094C000D21AB2F5805FD4E9031028BF4FF480525E
:1094D0009208012A38BF012219441844FFF756FFA9
:1094E00050B11128DDD101232B72D2E7D4E9030357
:1094F0001844FFF74DFFF3E72B7C002BC9D1014641
:10950000BDE87040022000F009B800BFB82B002071
:10951000D02B0020CC2B0020A82B002038B5831E98
:10952000012B45D8234C237A002B41D0022B09D1A3
:10953000032830D0204B00221B68E2601A793AB130
:10954000012A22D0637C7BBBBDE83840FFF794BF83
:10955000D3E905128D1AB5F5805F94BF521902F553
:1095600080529A619142EDD102284FF0000308BF6A
:1095700019462372104B18BF0D211868FFF70AFF18
:109580000E490F48FFF7DCFADCE71A6901321A616D
:109590005B699A42E7E7E3680133082B01D8E3608F
:1095A000D0E70023E360DFE7BDE8384007F0D4BC34
:1095B00038BD00BFB82B0020D02B0020CC2B0020C2
:1095C000A82B002000F0FD03012B08D1044B002242
:1095D0005A74421E504250411874FFF74DBF7047F5
:1095E000B82B002010B5064C201DFFF76FFB28B9E3
:1095F000637C1BB9BDE81040FFF73EBF10BD00BF44
:10960000B82B00202DE9F34180460D460F4801A9F3
:1096100016461F46FFF72FFA0446A8B11C22002168
:1096200007F0B0FF2D0B0123237101A90748C4F8EF
:109630000080A760E5606661FFF747FAFFF7D2FF99
:10964000002002B0BDE8F0810420FAE7A82B00203A
:109650002DE9F74381468846104801A917461E4662
:10966000FFF709FA0446B0B11C22002107F08AFF77
:1096700000250A9BA36001A9C4E903780748257166
:10968000C4F800906661FFF720FAFFF7ABFF2846A9
:1096900003B0BDE8F0830420FAE700BFA82B002048
:1096A0002DE9F84FB0F806A04579D2F800B09DF842
:1096B00028900AFB05F5043D88460BEB0301A942FF
:1096C00003F1040488BFA5EB030BB4FBFAF60746CD
:1096D0000AFB1644C2F800B04EB9AAEB04055D457A
:1096E00028BF5D46BBF1000F04D1BDE8F88F3F688D
:1096F000013EF1E7043408EB06003C442A46B9F188
:10970000000F0DD02146ABEB050B07F012FFDA4539
:109710002E443F6855464FF0000428BF5D46E1E700
:1097200001462046EFE7FFF7DABAF8B54679014679
:10973000721E0546002393422D6803D30024A642DF
:1097400002D8F8BD0133F6E70F682846FFF702FBA1
:1097500001343946F3E72DE9F843068ACD1C074664
:10976000FFF7D4FA043E35440446B5FBF6F5F0B1F4
:109770004FF48073EDB28380C680013D076081465F
:109780004FF00008A84512D23846FFF7BFFA064648
:1097900048B163790133637108F10108C9F8000029
:1097A00007608146EEE72046FFF7BFFF34462046BC
:1097B000BDE8F88301210430FFF770BA10B501212C
:1097C00004460430FFF776FA10F0FF0F04D120466C
:1097D000BDE81040FFF7A9BF10BD1FB503920022DE
:1097E000009203AAFFF75CFF05B05DF804FB1FB50C
:1097F00003920122009203AAFFF752FF05B05DF821
:1098000004FB33DF704741DF704700000D4A08B5A5
:10981000002313700C4A1360BFF35F8F0B490C4891
:1098200000F0B1F80B4A0C480121FDF703FF024696
:1098300030B9BDE8084009484FF48041FDF705BF45
:1098400008BD00BF002C0020042C0020982203003B
:10985000D42B00206199020094220300E02B002009
:1098600007B500230DF107008DF80730FDF7DEFF87
:10987000F1EE103A23F09F03E1EE103ABFF35F8F51
:10988000094B4022C3F884219DF80700FDF7F2FF41
:1098900007F072FB20B1FFF7B6FF03B05DF804FBE1
:1098A00020BF40BF20BFF8E700E100E070B5264DC3
:1098B000044601212846FFF7AAF9BFF35F8F2E4621
:1098C00038B9042C0AD0214B1A781AB1BFF35F8F34
:1098D000286070BD1E4A147001221A701D4C1C4D68
:1098E0006368BBB9FDF746F9FCF7ACFF0028FBD174
:1098F000174B1B78023B012B14D8BFF34F8F16492F
:10990000164BCA6802F4E0621343CB60BFF34F8F7B
:1099100000BFFDE71B682878984788B1204600F013
:109920003CF8DDE707F028FB08B1FFF76AFF4FF0CE
:1099300080430122C3F80025BFF34F8F20BFFDE70E
:10994000BFF35F8F3060C4E7042C0020002C0020A0
:10995000DC2B0020D42B002000ED00E00400FA05F1
:10996000034B1B7813B10420FFF7A0BF704700BF63
:10997000002C0020836800225A60C3E904229A6008
:10998000DA601A6070470B684A684360934208BF08
:109990000023016008BF43607047436843B1026819
:1099A000916852680B449342436004BF00234360B4
:1099B000704770B5446806460D46206818B1B36814
:1099C0002946984718B923682B60256070BD246824
:1099D000F3E74368186808B102681A607047436883
:1099E000186870474368186800B97047884203D107
:1099F00002681A600120704703460068F4E700001F
:109A000010B50D49A1F59472914201D800200FE0E4
:109A10008C1AE30F03EBE4035B1002EBC30452F870
:109A20003330834205D802D204F10802ECE76068C3
:109A300010BD2146E8E700BFA427030008B5FFF7E3
:109A4000DFFF024B002808BF184608BD6726030049
:109A500038B5074C051E04F1080318BF1C462368DF
:109A60002BB11A6822605B6828469847F7E738BD33
:109A7000102C002020B9054B01225A70FFF7E8BFD7
:109A8000012802D1014A9070F8E77047082C0020A5
:109A900020B9034B01225A70FFF7DABF704700BFAD
:109AA000082C002038B50E4C2378B3B90D486360FC
:109AB000A3602361E36000F0E5F8054607F05CFA77
:109AC00008B900F0EBF801232370074BD3F80034FA
:109AD0000BB10123A370284638BD8525F5E700BFEB
:109AE000082C0020759A02000000014037B50D4C8B
:109AF00000230DF107008DF80730FDF797FEE368AE
:109B0000013BE360E36833B9074BD3F8005415B960
:109B100000F0D6F8A5709DF80700FDF7ABFE03B086
:109B200030BD00BF082C002000000140012813B503
:109B30000CD0032820D038B9124B0122C3F8802062
:109B4000BFF34F8FBFF36F8F02B010BD0E4C0023D9
:109B50000DF107008DF80730FDF768FE23780BB98B
:109B6000FFF7A0FFE3689DF807000133E3600123DE
:109B7000A370FDF77FFEE7E700F090F8FFF7B6FF70
:109B8000E2E700BF00E100E0082C00201FB50378E9
:109B90008DF800304368019383688DF80830C368FE
:109BA000054A0393054B684653F8213052F82110BB
:109BB000984705B05DF804FB1C2C0020202C0020E9
:109BC0001FB503788DF800304368019383688DF8E2
:109BD0000830C368054A0393054B684653F82130A3
:109BE00052F82110984705B05DF804FB1C2C0020AA
:109BF000202C0020F0B5194B90F800C091F81DE022
:109C000043F82C20164B16460A6943F82C20154BB6
:109C100003F80CE00C4607460FCC89B06D460FC523
:109C200094E80F0085E80F00CDF810C0BEF1000FDA
:109C300009D0002E0C4A694608BF3246381D00F094
:109C400073FD09B0F0BD002E084A694608BF3246D0
:109C500007F10C0000F05EFBF3E700BF202C0020B2
:109C60001C2C0020242C00208D9B0200C19B020094
:109C700000F18040002382B0036003680193019BE0
:109C800002B07047044A137923B901211060918012
:109C90001846704785207047282C0020074B1A680B
:109CA000D20704D4C02283F8002301221A604FF0A7
:109CB00080430122C3F81825704700BF00E100E08F
:109CC0004FF0804208B50223C2F808334FF4827087
:109CD000FFF7CEFF034B01211960D2F81834DB03E4
:109CE000FBD408BD0C000040124B1B6810B573B1CB
:109CF0004FF48070FFF7BCFF4FF080430122C3F8A0
:109D000008230D4B587910B95A711B6898470B4BB3
:109D10001B6873B14FF48270FFF7AAFF4FF08043C6
:109D20000222C3F80823044BBDE810401B68012041
:109D3000184710BD00010040282C002004010040FD
:109D400000F1804000F5C040002382B0036003684A
:109D50000193019B02B07047800000F1A040D0F851
:109D6000002722F44032C0F80027D0F8003743EA39
:109D70000141C0F800177047054B4FF0FF3207282C
:109D800043F8202084BFC01880F84820704700BFE7
:109D9000302C002010B51A4C94F858306BBB4FF0A3
:109DA000FF3222FA03F1C90748BFE11803F10103AA
:109DB00048BF81F83020202BF3D10021C8B2FFF733
:109DC000DBFF01310C29F9D1042200210D4807F0F5
:109DD000D9FB0D4BC02283F8062340221A604FF4B2
:109DE000BE70FFF7ADFF094B4FF00042C3F80423EC
:109DF000012384F85830002010BD0820FCE700BF84
:109E0000302C0020842C002000E100E000600040A5
:109E1000034B93F85800003818BF0120704700BF6B
:109E2000302C0020F0B5364D2C1894F93040002C21
:109E300064DA8C78C4F34004002C0BBF08230023A1
:109E40000C260826B34201D10420F0BD55F823703A
:109E500001373FD12E1845F8232086F8303014B949
:109E6000EA1882F848008A78540713D4D60733D505
:109E7000820002F1A042D2F8004724F00204C2F8A6
:109E80000047204EC20800F007070124BC40B75C21
:109E90003C43B4548A780C7812F0020225D09B001F
:109EA00003F1804303F5C0430202D3F8101521F4F7
:109EB000473121F44071C3F810152404D3F810156C
:109EC00002F4F85204F4403422430A43C3F8102544
:109ED0000020BAE70133B5E74C7800F5E0724FF0A7
:109EE000A046A40046F82240CBE7083B2B4493F859
:109EF000501041EA841483F85040E9E70820A4E7B1
:109F0000302C0020842C002038B51F4C251895F9E2
:109F10003020072A16DD224492F848309B09032B93
:109F20000BD14FF0A043D3F81015C14001F001014F
:109F30000231BDE83840FFF70FBF012B0CBF0221F3
:109F40000321F6E7D3B2072B1CD8930003F180431B
:109F500003F5C043D3F8100540F00100C3F8100525
:109F600002F14000800080B2FFF7EAFE51B195F99E
:109F7000303054F823302BB1012303FA02F2034BA3
:109F8000C3F8042338BD00BF302C0020006000401F
:109F90004FF0A043D3F8103523FA00F000F0010091
:109FA000704700002DE9F74F00244E4D01944FF407
:109FB0008072012102F1804303F5C04390B21B6817
:109FC000012B06D1D5F804330B4202D0FFF7B8FEBF
:109FD0000C430432B2F5907F4FEA4101EAD1424B83
:109FE0001B68012B0CD14FF4BE70FFF7A9FE4FF098
:109FF000A04344F00044D3F820250192C3F8202563
:10A0000014F0FF0F1AD0394F00250126344210D02A
:10A01000AB0003F1804303F5C043D3F81005D3F838
:10A02000101557F8253023B1C1F30141C0F30420C6
:10A0300098470135082D4FEA4606E7D1002C48DA4B
:10A040002A4D4FF0A0482A4E4FF00009012716F97B
:10A05000013B5A1C31D0C3F3C20202A90A44DCB24C
:10A0600012F8042C03F03F0A03F0070307FA03F386
:10A070001A4222D00AF5E073504658F82330C3F351
:10A08000014BBBF1020F0CBF03210221FFF764FE5D
:10A0900007FA0AF3C8F8203505EB0A0393F93030C4
:10A0A00055F823304BB1A109032904D0BBF1020FAD
:10A0B00012D1012901D15046984709F10109B9F19E
:10A0C000040FC4D1D8F820350193C8F82035002BEF
:10A0D000B9D103B0BDE8F08FBBF1030FEDD1022978
:10A0E000E8E700BF006000407C610040302C0020A9
:10A0F000802C0020014B1B68184700BF8C2C0020CF
:10A100000E4B984237B50C4602D0002003B030BD4C
:10A1100000230DF107008DF80730FDF787FB084B92
:10A120001D7915B901221C601A719DF80700FDF711
:10A13000A1FB002DE9D01120E8E700BF002000407E
:10A140008C2C0020034B984201BF034B00221A6065
:10A150001A717047002000408C2C002000234350CF
:10A1600082B043580193019B02B070470A4610B574
:10A170004FF48E71FFF7F2FF136A9168C95C136A9E
:10A1800001331362C0F81C1510BD8B690A4610B567
:10A190004FF4847123B9FFF7E1FFD0F8183510BDF3
:10A1A000FFF7DCFF536AD168D0F81805C854536A2A
:10A1B00001335362F3E700001FB501238DF800302F
:10A1C000044BCDE90110D3E900126846904705B071
:10A1D0005DF804FB942C002030B54C48D0F80433D3
:10A1E00013F4007F85B005464DD0D0F82431002B04
:10A1F00049D04FF49271FFF7B1FF4FF40173C0F8EB
:10A200000833434B93F829200AB9012242603F49A1
:10A2100002228DF80020D1F88024C1F88024039216
:10A220009A690292DA6801920022C3E9062268461E
:10A23000D3E9001290473548D0F81C315BB134495E
:10A240004A690B6A9A420A464AD991F82830002B8B
:10A2500046D1FFF78BFF2D48D0F844318BB14FF436
:10A26000A271FFF77BFF2A4B93F829200AB1012244
:10A2700002609A692AB10022586AD9689A61FFF788
:10A280009BFF05B030BDD5F804335B07D3D5D5F8B7
:10A290000831002BCFD01E4C1C482146FFF775FF1C
:10A2A000636AA2699A422346C5D1E269E1684AB16C
:10A2B0002369E3600023606AA261E3616362FFF7E0
:10A2C0007BFFB8E794F829200AB901226A600F4A97
:10A2D0004FF40170C2F808030022586A9A61EEE751
:10A2E0000A484FF48E71FFF739FF5369002BB2D043
:10A2F00051690291002391688DF8003001915361FA
:10A300006846D2E900139847A5E700BF0020004047
:10A31000942C00202DE9F843544B057991462C22CA
:10A3200002FB0532064692F82A200C469846002A7F
:10A3300040F098804E490068FFF7E2FE074600288B
:10A3400040F0928021683368481C0BD04FF0A04049
:10A3500001228A40C0F8082501F5E0724FF0030C95
:10A3600040F822C06068421C1FBF00F5E0724FF049
:10A37000A04C4FF0000E4CF822E0A269C3F824254F
:10A3800094F814C0627DBCF1010F4CEA0202C3F8DC
:10A390006C25C3F81405C3F80C151DD1A1684A1C1F
:10A3A0001FBF01F5E0724FF0A0404FF0000C40F8E5
:10A3B00022C0E268501C0BD04FF0A04C012090400E
:10A3C000CCF8080502F5E0704FF0030E4CF820E0E1
:10A3D000C3F80825C3F810152C236B4308EB0302C0
:10A3E000C2F80490226948F80320B9F1000F21D087
:10A3F0003068247F4FF48E71FFF7B0FE4FF4A271E6
:10A400003068FFF7ABFE32681A4BC2F80433110B09
:10A4100042F307326301002ADBB21EDB16488418C0
:10A4200084F800330123520901F01F0103FA01F1FE
:10A4300040F8221033680422C3F800252C2303FBC4
:10A4400005830022C3E9062283F829205A610122EC
:10A4500083F82A203846BDE8F883084A01F00F0146
:10A460005354E7E70827F5E71127F3E7942C00207A
:10A47000D9A102008000020000E100E014ED00E03C
:10A48000F8B503680479304D0022C3F800252C226A
:10A4900002FB04525268A2B12C4AC3F808231A0BDB
:10A4A00043F30733002B0CDB02F01F015B09012291
:10A4B0008A402033264941F82320BFF34F8FBFF352
:10A4C0006F8F0068D0F80C65D0F81415D0F80835F7
:10A4D000D0F810254FF0FF37BE42C0F8147518BFF2
:10A4E00006F5E076C0F80C75C0F80875C0F8107570
:10A4F0001EBF4FF0A0474FF0020C47F826C04E1C7D
:10A500001FBF4FF0A04601F5E071022746F8217009
:10A51000511C1FBF4FF0A04102F5E072022641F826
:10A5200022605A1C1FBF03F5E0734FF0A0420221C6
:10A5300042F82310FFF706FE2C2303FB04540023EC
:10A5400084F82A306360F8BD942C00208402020055
:10A5500000E100E02DE9F047204F90F804904FF023
:10A560002C0808FB097405466669002E34D1626127
:10A570000068A16026624FF48E7184F82860FFF7AE
:10A58000EDFD2868012383602146FFF7EFFD636836
:10A59000A0468BB92868D4F814A0236A9A4511D82C
:10A5A0002A68D2F81C31002BFBD00123D3602C2366
:10A5B00003FB097300225A613046BDE8F08794F826
:10A5C00028303BB9D0F81C31002BF8D04146FFF7BA
:10A5D000CDFDE2E70F26EAE71126EDE7942C0020F7
:10A5E0000023435082B043580193019B02B070474F
:10A5F0001FB501238DF80030044BCDE90110D3E9DC
:10A6000000126846904705B05DF804FBC02C00209E
:10A610007FB5434AD2F82461002E60D010464FF433
:10A620009271FFF7DDFF02238DF80030D2F88034FD
:10A63000C2F880340393D2F83C350293394BDA6880
:10A6400001920022C3E906226846D3E9001290472E
:10A650003348D0F8443173B14FF4A271FFF7C0FF13
:10A66000304B9A693AB10022C3E90622D968D0F882
:10A670003C05FFF7BDFF2A48D0F82031ABB14FF4BD
:10A680009071FFF7ADFF0123C360264B5A6962B199
:10A69000D0F84C150291002299688DF800200191A4
:10A6A0005A616846D3E9001290471D48D0F85831E6
:10A6B0009BB14FF4AC71FFF793FF1A4B5A6962B12B
:10A6C000D0F84C150291002299688DF80020019174
:10A6D0005A616846D3E90012904704B070BDD2F8C1
:10A6E0001031002BB4D04FF488711046FFF778FF7B
:10A6F0000C4BD2F83C0599698842A9D1DC69D9682C
:10A7000064B1D2F8005225F02005C2F800521A694F
:10A710009C61DA60DE61FFF76BFF99E79C61FAE705
:10A7200000200040C02C00202DE9F8435B4B067947
:10A730009146242202FB0632044692F820200D4660
:10A740009846002A40F0A58055490068FFF7D8FCDC
:10A750000746002840F09F8029682368481C0BD0DA
:10A760004FF0A04001228A40C0F8082501F5E072B0
:10A770004FF0030C40F822C06868421C1FBF00F570
:10A78000E0724FF0A04C4FF0000E4CF822E0AA69A6
:10A79000C3F8242595F814C06A7DBCF1010F4CEA7A
:10A7A0000202C3F86C25C3F80C15C3F814051DD1BB
:10A7B000A9684A1C1FBF01F5E0724FF0A0404FF09E
:10A7C000000C40F822C0EA68501C0BD04FF0A04C9F
:10A7D00001209040CCF8080502F5E0704FF0030E20
:10A7E0004CF820E0C3F80825C3F810152423734360
:10A7F00008EB0302C2F804902A6948F80320B9F173
:10A80000000F30D020682A7F4FF48871FFF7E8FEF0
:10A8100020684FF49071FFF7E3FE20684FF49271C7
:10A82000FFF7DEFE20684FF4A271FFF7D9FE4FF468
:10A83000AC712068FFF7D4FE23681A49C3F80413EB
:10A84000190B43F307335201002BD2B21CDB16481D
:10A85000C51885F8002301225B0901F01F0102FAE7
:10A8600001F140F8231023680822C3F800252423AF
:10A8700003FB06830022C3E906225A61012283F802
:10A8800020203846BDE8F883084B01F00F015A54E8
:10A89000E9E70827F5E71127F3E700BFC02C002000
:10A8A00011A602001003420000E100E014ED00E0F8
:10A8B000F8B5444D0479242303FB045302465B6836
:10A8C0000068ABB1404BC0F8083340F30733002BAE
:10A8D0004FEA10310CDB01F01F065B090121B1408A
:10A8E00020333A4E46F82310BFF34F8FBFF36F8FDC
:10A8F000D0F8003223F02003C0F80032242303FBF9
:10A9000004539B692BB14FF4A271FFF769FE012339
:10A9100043604FF4AC71FFF763FE0123C36024234F
:10A9200003FB0453D0F858110029FBD0996919B1E1
:10A93000D0F844110029F5D00023C0F80035136881
:10A94000D3F80C75D3F81465D3F80825D3F810158F
:10A950004FF0FF3C6745C3F80CC518BF07F5E0771B
:10A96000C3F814C5C3F808C5C3F810C51EBF4FF01F
:10A97000A0434FF0020C43F827C0771C1FBF4FF0D5
:10A98000A04306F5E076022743F826704E1C1FBF51
:10A9900001F5E0714FF0A043022643F82160531CFB
:10A9A0001FBF4FF0A04302F5E072022143F82210CE
:10A9B000FFF7C8FB242303FB0454002384F8203052
:10A9C0006360F8BDC02C00201003420000E100E0ED
:10A9D00001F06043B3F1005F2DE9F041064638D144
:10A9E0001E4B0779242505FB073598466C69002C1A
:10A9F00031D16A610068A9604FF49071FFF7F0FDF2
:10AA00004FF4AC713068FFF7EBFD33686A69A968F1
:10AA1000C3F84415C3F8482501229A606A68AAB9A8
:10AA2000D3F82021D3F858411AB9002CF8D00F24BC
:10AA300007E0002CFBD10122DA60D3F85821002A6C
:10AA4000FBD0242303FB078700237B612046BDE85E
:10AA5000F0811024FAE71124F8E700BFC02C002091
:10AA60000023435082B043580193019B02B07047CA
:10AA70008B6A4A6B9A4210B54FF0010305D2496ABE
:10AA80008A5CC0F81C251A4604E091F82C201AB103
:10AA9000C3610022104610BD0C6A640603D5C36171
:10AAA00081F82D30F6E74361EDE770B5D0F8046129
:10AAB00004460D4626B14FF48271FFF7D1FF0126FF
:10AAC00095F82F2022B34FF492712046FFF7C8FF6C
:10AAD0004FF48E71FFF7C4FF4FF48471FFF7C0FF8E
:10AAE000002E67D095F82F20002385F82D3082BBEB
:10AAF000AB6A696B99421CBF1646052386F00106B6
:10AB00001CBFC4F80025C4F8003585F82F6021E08B
:10AB1000D4F824314BB14FF492712046FFF7A0FFD7
:10AB20000123636185F82F30DAE7D4F81C319BB13B
:10AB30004FF48E712046FFF793FF6B6B01336B630D
:10AB4000D4F82431002BE6D12946FFF791FF0028E5
:10AB5000C6D10022104670BDD4F80831002BBFD0FA
:10AB60004FF484712046FFF77BFFD4F82431002B8B
:10AB7000D1D16B6BA96A8B42B2D2696AD4F818053D
:10AB8000C8546B6BA96A0133481E83426B6308D1BA
:10AB9000286A400610D40223C4F80032012323623D
:10ABA0009EE78B42FAD12B6A5B0699D5022385F882
:10ABB0002D30CFE70122CDE78B42EFD1F6E7000041
:10ABC00037B5344B01930D464FF482710446FFF7BD
:10ABD00047FF4FF49271FFF743FF4FF48E71FFF779
:10ABE0003FFF4FF48471FFF73BFF00236B6385F851
:10ABF0002F30AB6A012B17D12B6A5B0614D40223CA
:10AC0000C4F800320123236295F82D20022A18BFD0
:10AC100023602B6893B140F28623AB60AB68C4F825
:10AC20000433002003B030BD0123E9E72946204664
:10AC3000FFF73BFF28B1019B013B0193019B002BD8
:10AC4000F4DC95F82F0050B9019B002BEADC0023BF
:10AC5000C4F800350523C4F800350320E2E7D4F832
:10AC6000C434C4F8C43493B113F0010F14BF4FF4CB
:10AC70000240032048F2012213F0020F18BF1046D1
:10AC800013F0040F48F2022318BF1846DCE7032034
:10AC9000DAE700BFA086010037B5314B01930D46BE
:10ACA0004FF482710446FFF7DBFE4FF49271FFF719
:10ACB000D7FE4FF48E71FFF7D3FE4FF48471FFF788
:10ACC000CFFE0023C0F800326B6385F82F300123DC
:10ACD000036295F82D209A4218BF83602946FFF73A
:10ACE000C7FE2B6883B140F28623AB60AB68C4F823
:10ACF0000433002003B030BD29462046FFF7D5FEBF
:10AD000028B1019B013B0193019B002BF4DC95F8DA
:10AD10002F0050B9019B002BECDC0023C4F8003558
:10AD20000523C4F800350320E4E7D4F8C434C4F89C
:10AD3000C43493B113F0010F14BF4FF40240032049
:10AD400048F2012213F0020F18BF104613F0040F4F
:10AD500048F2022318BF1846DCE70320DAE700BFF9
:10AD6000A0860100F0B52A4C87B021464FF0402064
:10AD7000FFF79BFEA446E0B994F82F60276AEEB96E
:10AD8000237B9A1E012A19D8616AA269914215D1C2
:10AD9000E2696262C7F340176269A262032B84F81A
:10ADA0002C7084F82D6021464FF0402003D1FFF72E
:10ADB00073FF07B0F0BDFFF703FFFAE7154D0FCDA6
:10ADC00001AC0FC42B682360FEB14FF04022D2F8D3
:10ADD000C434C2F8C43498070ED501238DF800306E
:10ADE00000238CF830307B0701D5002EE1D0DCE960
:10ADF000003168469847DCE7590701D50223EDE7A3
:10AE0000DA074CBF03230423E8E78DF80060E7E787
:10AE1000E42C0020F02C00202DE9F84F0779314E6A
:10AE20004FF03C0A0AFB07FA06EB0A059B4695F829
:10AE30002E3080460C469146002B4FD12A4900689F
:10AE4000FFF75EF900284BD12168637B85F8383025
:10AE500001F5E0724FF0A043A860C5F804B085F892
:10AE6000300085F82D0085F8310040F20C6546F879
:10AE70000A9043F82250626802F5E07C43F82C50B7
:10AE8000D8F80030C3F80815C3F80C25A268C3F839
:10AE90002425B9F1000F14D0227B43F3073152016E
:10AEA0000029C3F30733D2B213DB104C651885F8C1
:10AEB00000230122490903F01F0302FA03F344F8B7
:10AEC00021303C2303FB0766012386F82E30BDE8C2
:10AED000F88F074903F00F03CA54F2E70820F6E79A
:10AEE0001120F4E7E42C002065AD020000E100E051
:10AEF00014ED00E0026803790521C2F80015044A48
:10AF00003C2101FB0323022283F82E20704700BF5F
:10AF1000E42C00202DE9F047324E90F80480D0F860
:10AF200000903C2303FB08630C4693F82D30012B63
:10AF3000174604D10B78012B06D1082011E0022B13
:10AF400002D10B78012BF8D13C25274BC9F80833E7
:10AF500005FB086595F830302BB1AB68C9F80433B0
:10AF60001120BDE8F08787F00403C3F3800385F860
:10AF700030302F62A646BEE80F0005F10C0CACE89D
:10AF80000F00DEF80030CCF800306368AB62E36895
:10AF90006B626378C9F888352378C8EB081A012BEF
:10AFA00006EB8A0A19D0B3B9C7F340173C2303FB59
:10AFB0000863514683F82C704846FFF76DFE3C232A
:10AFC00003FB08F806EB080256F80830002BC8D13E
:10AFD00082F83030C5E70127E8E751464846FFF7D9
:10AFE000EFFDECE7E42C00208642040010B586B0AB
:10AFF0000024CDE902349DF820308DF80510A342DD
:10B00000CDE9042401A914BF202222468DF8044072
:10B01000FFF780FF06B010BD10B586B00124029383
:10B020000023CDE903328DF805101A4601A98DF8E9
:10B0300004400593FFF76EFF06B010BD1FB50378FF
:10B040008DF800308388ADF8043083688DF80630C1
:10B05000C3688DF80730036902934369054A039377
:10B06000054B684653F8213052F82110984705B037
:10B070005DF804FB202D0020282D0020024B4FF40A
:10B08000807043F001031847D02703002DE9F047F3
:10B09000174690F80090324A42F82970314A42F837
:10B0A00029304B7B80460C4663B3086849688200B0
:10B0B0008B0002F1A04203F1A04340F20C65C2F8FC
:10B0C00000570126C3F800574FF0A04506FA00F0DC
:10B0D00006FA01F1C5F80805C5F8081540F20D613A
:10B0E000C2F80017C3F80017FFF7C8FF4FF0000AB7
:10B0F000D5F81025636822FA03F3DB070ED5BAF101
:10B10000000F1ED1002F184A4B4608BF3A46214671
:10B1100008F10400BDE8F047FFF77EBE236806FA99
:10B1200003F3C5F80C35FFF7A9FF236806FA03F30C
:10B13000C5F808350AF1010AFFF7A0FFBAF1090FB7
:10B14000D6D1636801254FF0A04605FA03F3C6F88F
:10B150000C35FFF793FF63689D40C6F80855D1E7AB
:10B16000282D0020202D00203DB002000023435058
:10B1700082B043580193019B02B07047F0B51A4C5E
:10B18000437944F82320194C03EB4303E35C43BBAE
:10B1900090F904508B7802795B01002DDBB21BDB48
:10B1A000134E771987F8003301236D0902F01F024F
:10B1B00003FA02F246F8252003680A88C3F8082536
:10B1C00043790879C97803EB4303E2185070917012
:10B1D0000122E2540020F0BD064D02F00F02AB54F4
:10B1E000EAE70820F7E700BF342D0020302D0020CB
:10B1F00000E100E014ED00E0036801221A604379E9
:10B20000024A03EB43030221D1547047302D002042
:10B210000368044901225A60437903EB4303CA548B
:10B22000704700BF302D0020024610B500680C4664
:10B230004FF48071FFF79AFF13680122C3F844238B
:10B240000CB1C3F8042310BD03680122C3F84823DE
:10B25000C3F80823704700002DE9F041224E234F28
:10B26000DFF88C8000244FF48035D7F80433A6F53E
:10B2700080412B4289B20CD0336853B1C7F8485390
:10B280003846C7F80853FFF771FFD8F80030E0B22E
:10B2900098470134042C4FEA450506F10406E4D131
:10B2A0001248D0F80433DA070AD5D0F800313BB1A0
:10B2B0004FF48071FFF75AFF0D4B20461B689847EB
:10B2C0000A48D0F804339B070CD5D0F804314BB1B1
:10B2D0004FF48271FFF74AFF054BBDE8F0411B6850
:10B2E00005201847BDE8F08140410240004002407F
:10B2F000342D002008B5094B1B7853B10020FBF713
:10B3000087FD0120FBF784FDBDE808400320FBF723
:10B310007FBDBDE80840FBF787BD00BF382D00208A
:10B32000F8B57B4C237805461BB100232370FFF74B
:10B33000E1FF172D00F28880DFE805F00C171743B6
:10B3400054657680888D888D959A9A9A9A9AC4C900
:10B35000D1D9E4E4FFF7CEFF6E48FCF78EF96E4BCF
:10B36000002204461A702046F8BD0020FBF736FD87
:10B37000F8B10020FBF74CFD022D0CBF4FF4E1614A
:10B380004FF47A61644B1D704FF400404FF47A74AF
:10B390000025E0FB01454FF4FA62002320462946D0
:10B3A00005F07DFF00220146BDE8F8405948FCF752
:10B3B0004CB9FBF721FD022D0CBFC8214FF4C87119
:10B3C000E0E70020FBF70AFD40B10020FBF720FD7D
:10B3D0004FF44871504B03221A70D5E7FBF70CFD70
:10B3E000C821F7E70020FBF7F9FC38B10020FBF794
:10B3F0000FFD4FF47A61484B0422EDE7FBF7FCFCAC
:10B400004FF4C871F7E70020FBF7E8FC48B10020D3
:10B41000FBF7FEFC404B05221A7040F6CD4100229E
:10B42000C2E7FBF7E9FCF5E70020FBF71BFD3A4B11
:10B4300006221A70002240F26661B5E70020FBF791
:10B44000DBFC354B07221A7000248CE701202070AA
:10B45000FBF708FDEEE701202070FBF703FD00225B
:10B460004FF40051A0E7FBF7EEFC2B4B0C22EAE770
:10B470002A482B4EFCF701F9D5F1110504461CD0E2
:10B48000D8B9012D13D0C8235D434FF400474FF4C2
:10B490007A7000214FF4FA620023C7FB050105F022
:10B4A000FEFE224601461D48FCF7CFF80446022066
:10B4B000FBF7A2FC0123337055E70220FBF7A8FC41
:10B4C0000023F8E7FFF716FF134B1222BBE7FFF745
:10B4D00011FF0020FBF790FC0F4B1322B3E7FFF79F
:10B4E00009FF0120FBF788FC0B4B1422ABE7FFF7A9
:10B4F00001FF0020FBF780FC0120FBF77DFC064BE1
:10B500001522A0E7FBF79FFC034B1D709CE700BFD3
:10B51000902D0020602D0020912D0020402D002036
:10B52000382D0020044B1B6813F0010301D0FFF7F6
:10B53000F7BE1846704700BF8C2D0020032811D895
:10B54000012A0AD101290FD100F10E02D2B20D4B0E
:10B5500000EB40001A54002070470129F7D002295F
:10B5600004D049B1072070470022F8E7054B00EBF3
:10B57000400018444270EEE7024B00EB40001844D4
:10B580008270E8E7802D0020032808B512D8FBF769
:10B590007BFC800000F1A040D0F8003723F440335A
:10B5A000C0F80037D0F8003743F44033C0F8003714
:10B5B000002008BD0620FCE708B50122022100207A
:10B5C000FFF7BCFF08B1072810D107220221012094
:10B5D000FFF7B4FF08B1072808D100210A22084666
:10B5E000FFF7ACFF10B1072808BF002008BD00001E
:10B5F0000388102B10B502D0112B1ED010BD1A4C91
:10B600002168B1B901220846FFF798FF08B1072861
:10B6100024D1072202210120FFF790FF08B107285B
:10B620001CD1042202210020FFF788FF08B107285F
:10B6300014D1236801332360E0E70B4A1368013B10
:10B640001360002BDAD1FFF7B7FF0028D6D0074BE5
:10B650001B68002BD2D0BDE810401847034B1B6875
:10B66000002BE6D09847E4E7982D0020942D002089
:10B6700008B50020FFF788FF08B1062806D1012091
:10B68000FFF782FF10B1062808BF002008BD76DF53
:10B6900070477ADF70477CDF70478FDF7047FBF7BA
:10B6A000D5BE00000388212B13B5044627D005D84A
:10B6B000102B10D0112B0AD002B010BD3B2B01D0A3
:10B6C000562BF9D1A0881321FFF7E1FF12E0104BB0
:10B6D00000221A70F0E70E4B012207201A70FFF7C4
:10B6E00021FF08B1FBF7B2FE0A4BA1880A48198076
:10B6F00002F0CCFF0028DFD0FBF7A8FEDCE7002338
:10B7000001A98088ADF80430FFF7C7FFF2E700BF5A
:10B71000F4320020DA220020FC31002010B504466B
:10B7200004F07EFA2046BDE8104004F05BB800004B
:10B7300010B51F4B1F4A9B1ADB088CB01B04032853
:10B7400034D8DFE800F002272D3143F003041A4912
:10B750002046FBF7BBF92C22002101A805F012FFBF
:10B7600044F250624FF49671CDE90512012313485B
:10B770008DF8083001A98DF8043001F0AFFB0021ED
:10B780000F4801F047FE0F4902462046FBF7A2F999
:10B790000CB010BD0C4943F00300FBF797F9F7E735
:10B7A0000A4943F00100F8E70949FAE70949F8E7CF
:10B7B000601D0300281D0300DA2703009C2D0020D4
:10B7C000D9B70200082803001F28030042280300FD
:10B7D0007B280300A828030013B513210190FFF76D
:10B7E00056FF019A034660B10748084C0849241ADD
:10B7F000E408240444F0020002B0BDE81040FBF766
:10B8000072B902B010BD00BF281D0300601D030007
:10B81000CF280300022807B50ED1094B09480A4971
:10B82000C01AC008000440F003000190FBF74EF975
:10B8300006490198FBF74AF9012003B05DF804FBC3
:10B84000281D0300601D0300102903003D2903008B
:10B85000032807D14FF08043A922C3F820250020F8
:10B86000FEF724B87047000008B503784BB9054BC4
:10B870003B211888FFF70BFF18B1BDE80840FBF724
:10B88000E5BD08BDDA22002008B548B1032814D16F
:10B890000220FFF747FE80B1BDE80840FBF7D6BDA8
:10B8A000FFF740FE08B1FBF7D1FDFFF7E1FE08B15D
:10B8B000FBF7CCFD05F020FBEDE708BDFBF7C6BDAF
:10B8C00010B54FF48041AEB00020FAF76BFF08B11D
:10B8D000FBF7BCFDFAF79AFEFBF77AFE08B1FBF71F
:10B8E000B5FDFDF793FF08B1FBF7B0FD00F096FD45
:10B8F00005F0C4FA08B1FBF7A9FD002303A9012054
:10B90000039305F083FB08B1FBF7A0FD03A805F046
:10B910002FFC08B1FBF79AFD03F088FC08B1FBF798
:10B9200095FD0522002103A805F02CFE039B03F0E2
:10B930007C42634B134303939DF8103023F00303C1
:10B9400043F0030303A88DF8103003F009FD08B19C
:10B95000FBF77CFD5B4803F0EBFC08B1FBF776FDE1
:10B96000112359488DF8083005F061FE564982B21E
:10B9700002A8FFF790FE08B1FBF768FD002108223E
:10B9800003A805F0FFFD51494FF0C87303A8CDE9A6
:10B990000313FFF77EFE08B1FBF758FD4C4800216A
:10B9A00002F06CFD08B1FBF751FD002302934948FA
:10B9B000494B019301A902F057FE08B1FBF746FD80
:10B9C000464B029302A805F0E7F808B1FBF73EFDED
:10B9D0000021042203A805F0D5FD414803A900F089
:10B9E0009BF808B1FBF732FDAC22002103A805F05B
:10B9F000C9FD02238DF80C3040F20163ADF80E3022
:10BA00000124384B08932C22002121A8ADF81C40BA
:10BA100005F0B8FD44F250634FF49672CDE925234A
:10BA20003148324B8DF8884003A92C9301F096F8E9
:10BA300008B1FBF70BFD2C48012101F08CF81C220A
:10BA4000002103A805F09EFD00234FF4A032CDE9AC
:10BA50000332ADF81A304FF4F0228DF81C30244B2D
:10BA6000059208930322234B8DF8182003A809930D
:10BA700001F03EFB08B1FBF7E9FC1F4B1F482049D2
:10BA8000C01AC008000440F00300FBF71FF800F0E4
:10BA900067F905F0D9FB1B48FFF7BAFB1948FFF718
:10BAA000D3FB1148032101F0D8F808B1FBF7CEFC15
:10BAB000FAF7C8FE0028FBD1FDF7D2FEF8E700BF79
:10BAC000310710031DB702006C2903005000A000CD
:10BAD000E8310020FC3100209FB6020031B702009F
